{"abi":[{"type":"constructor","inputs":[{"name":"chainId_","type":"bytes","internalType":"bytes"},{"name":"feeTokenAddr_","type":"address","internalType":"address"}],"stateMutability":"nonpayable"},{"type":"function","name":"chainId","inputs":[],"outputs":[{"name":"","type":"bytes","internalType":"bytes"}],"stateMutability":"view"},{"type":"function","name":"dispatch","inputs":[{"name":"","type":"tuple","internalType":"struct DispatchGet","components":[{"name":"dest","type":"bytes","internalType":"bytes"},{"name":"height","type":"uint64","internalType":"uint64"},{"name":"keys","type":"bytes[]","internalType":"bytes[]"},{"name":"timeout","type":"uint64","internalType":"uint64"},{"name":"fee","type":"uint256","internalType":"uint256"},{"name":"context","type":"bytes","internalType":"bytes"},{"name":"payer","type":"address","internalType":"address"}]}],"outputs":[{"name":"","type":"bytes32","internalType":"bytes32"}],"stateMutability":"payable"},{"type":"function","name":"dispatch","inputs":[{"name":"","type":"tuple","internalType":"struct DispatchPost","components":[{"name":"dest","type":"bytes","internalType":"bytes"},{"name":"to","type":"bytes","internalType":"bytes"},{"name":"body","type":"bytes","internalType":"bytes"},{"name":"timeout","type":"uint64","internalType":"uint64"},{"name":"fee","type":"uint256","internalType":"uint256"},{"name":"payer","type":"address","internalType":"address"}]}],"outputs":[{"name":"","type":"bytes32","internalType":"bytes32"}],"stateMutability":"payable"},{"type":"function","name":"feeToken","inputs":[],"outputs":[{"name":"","type":"address","internalType":"address"}],"stateMutability":"view"},{"type":"function","name":"feeTokenAddr","inputs":[],"outputs":[{"name":"","type":"address","internalType":"address"}],"stateMutability":"view"},{"type":"function","name":"frozen","inputs":[],"outputs":[{"name":"","type":"uint8","internalType":"enum FrozenStatus"}],"stateMutability":"pure"},{"type":"function","name":"fundRequest","inputs":[{"name":"","type":"bytes32","internalType":"bytes32"},{"name":"","type":"uint256","internalType":"uint256"}],"outputs":[],"stateMutability":"payable"},{"type":"function","name":"host","inputs":[],"outputs":[{"name":"","type":"bytes","internalType":"bytes"}],"stateMutability":"view"},{"type":"function","name":"hyperbridge","inputs":[],"outputs":[{"name":"","type":"bytes","internalType":"bytes"}],"stateMutability":"pure"},{"type":"function","name":"nonce","inputs":[],"outputs":[{"name":"","type":"uint256","internalType":"uint256"}],"stateMutability":"pure"},{"type":"function","name":"uniswapV2Router","inputs":[],"outputs":[{"name":"","type":"address","internalType":"address"}],"stateMutability":"pure"}],"bytecode":{"object":"0x6080604052346101fa5761095b8038038061001981610212565b9283398101906040818303126101fa5780516001600160401b0391908281116101fa57810191601f8481850112156101fa578351928284116101e657602093601f199561006b86888685011601610212565b978289528683830101116101fa57908592915f5b8281106101fe5750505f90880183015201516001600160a01b03811693908490036101fa5785519283116101e6575f54946001958681811c911680156101dc575b838210146101c857838111610185575b5081928411600114610125575050819293945f9261011a575b50505f19600383901b1c191690831b175f555b81546001600160a01b03191617905560405161072390816102388239f35b015190505f806100e9565b5f808052828120918516979193925b88821061016e57505083869796959610610156575b505050811b015f556100fc565b01515f1960f88460031b161c191690555f8080610149565b808885968294968601518155019501930190610134565b5f8052825f208480870160051c8201928588106101bf575b0160051c019087905b8281106101b45750506100d0565b5f81550187906101a6565b9250819261019d565b634e487b7160e01b5f52602260045260245ffd5b90607f16906100c0565b634e487b7160e01b5f52604160045260245ffd5b5f80fd5b8181018501518a820186015287940161007f565b6040519190601f01601f191682016001600160401b038111838210176101e65760405256fe6080604090808252600480361015610015575f80fd5b5f3560e01c9182625e763e146104a9575081630175539c146102de578163054f7d9c1461027f5781631694505e1461027f578163647846a5146102b6578163945cbbd0146102b65781639a8a059214610299578163affed0e01461027f578163b8f3e8f51461013c578163b9ea3289146100c7575063f437bc5914610098575f80fd5b346100c3575f3660031901126100c3576100bf906100b4610608565b90519182918261050c565b0390f35b5f80fd5b9050816003193601126100c3576020608492519162461bcd60e51b8352820152603960248201527f4d6f636b486f73743a2066756e6452657175657374206e6f742065786572636960448201527f73656420696e2073616d652d636861696e2066757a7a696e67000000000000006064820152fd5b9050600319916020833601126100c35781359067ffffffffffffffff938483116100c35760c09083360301126100c357805160c081018181108682111761026c578252828401358581116100c35761019990853691860101610589565b815260248301358581116100c3576101b690853691860101610589565b602082015260448301359485116100c35760a061020660a46020956101e2608499893691840101610589565b868601526101f2606482016105df565b6060860152888101356080860152016105f4565b9101525162461bcd60e51b815291820152603c60248201527f4d6f636b486f73743a20646973706174636828506f737429206e6f742065786560448201527f72636973656420696e2073616d652d636861696e2066757a7a696e67000000006064820152fd5b604185634e487b7160e01b5f525260245ffd5b82346100c3575f3660031901126100c357602090515f8152f35b82346100c3575f3660031901126100c3576100bf906100b4610608565b82346100c3575f3660031901126100c35760015490516001600160a01b039091168152602090f35b905060206003199281843601126100c35782359167ffffffffffffffff948584116100c35760e09084360301126100c35781519160e0830183811087821117610496578152838501358681116100c35761033d90863691870101610589565b835260249261034d8486016105df565b8382015260448501358781116100c3578501366023820112156100c3578681013590888211610484578160051b84519261038987830185610553565b83528686840191830101913683116100c357878101915b83831061045e5750505050828201526103bb606486016105df565b60608201526084850135608082015260a48501359687116100c35760c06103fc60c4603b976103f160849b8b3691840101610589565b60a0860152016105f4565b9101525162461bcd60e51b8152938401528201527f4d6f636b486f73743a2064697370617463682847657429206e6f74206578657260448201527f636973656420696e2073616d652d636861696e2066757a7a696e6700000000006064820152fd5b82358c81116100c357889161047983928c3691870101610589565b8152019201916103a0565b85604189634e487b7160e01b5f52525ffd5b604186634e487b7160e01b5f525260245ffd5b83346100c3575f3660031901126100c35780820182811067ffffffffffffffff8211176104f9576100bf93508152600b82526a485950455242524944474560a81b6020830152519182918261050c565b604184634e487b7160e01b5f525260245ffd5b602080825282518183018190529093925f5b82811061053f57505060409293505f838284010152601f8019910116010190565b81810186015184820160400152850161051e565b90601f8019910116810190811067ffffffffffffffff82111761057557604052565b634e487b7160e01b5f52604160045260245ffd5b81601f820112156100c35780359067ffffffffffffffff821161057557604051926105be601f8401601f191660200185610553565b828452602083830101116100c357815f926020809301838601378301015290565b359067ffffffffffffffff821682036100c357565b35906001600160a01b03821682036100c357565b604051905f8054906001908260011c600184169283156106e3575b60209485831085146106cf5782885287949081156106af5750600114610654575b505061065292500383610553565b565b5f8080527f290decd9548b62a8d60345a988386fc84ba6bc95484008f6362f93160ef3e56395935091905b81831061069757505061065293508201015f80610644565b8554888401850152948501948794509183019161067f565b91505061065294925060ff191682840152151560051b8201015f80610644565b634e487b7160e01b5f52602260045260245ffd5b90607f169061062356fea2646970667358221220350d9acb13111eea357ab81170f8442275fc0affc36ec8493fc31f65afa1373a64736f6c63430008180033","linkReferences":{}},"methodIdentifiers":{"chainId()":"9a8a0592","dispatch((bytes,bytes,bytes,uint64,uint256,address))":"b8f3e8f5","dispatch((bytes,uint64,bytes[],uint64,uint256,bytes,address))":"0175539c","feeToken()":"647846a5","feeTokenAddr()":"945cbbd0","frozen()":"054f7d9c","fundRequest(bytes32,uint256)":"b9ea3289","host()":"f437bc59","hyperbridge()":"005e763e","nonce()":"affed0e0","uniswapV2Router()":"1694505e"},"id":65}