{"abi":[{"type":"constructor","inputs":[{"name":"_token","type":"address","internalType":"address"},{"name":"_max_stake_growth_weeks","type":"uint256","internalType":"uint256"},{"name":"_start_time","type":"uint256","internalType":"uint256"},{"name":"_owner","type":"address","internalType":"address"}],"stateMutability":"nonpayable"},{"type":"function","name":"MAX_STAKE_GROWTH_WEEKS","inputs":[],"outputs":[{"name":"","type":"uint256","internalType":"uint256"}],"stateMutability":"view"},{"type":"function","name":"MAX_WEEK_BIT","inputs":[],"outputs":[{"name":"","type":"uint8","internalType":"uint8"}],"stateMutability":"view"},{"type":"function","name":"START_TIME","inputs":[],"outputs":[{"name":"","type":"uint256","internalType":"uint256"}],"stateMutability":"view"},{"type":"function","name":"acceptOwnership","inputs":[],"outputs":[],"stateMutability":"nonpayable"},{"type":"function","name":"accountData","inputs":[{"name":"account","type":"address","internalType":"address"}],"outputs":[{"name":"realizedStake","type":"uint112","internalType":"uint112"},{"name":"pendingStake","type":"uint112","internalType":"uint112"},{"name":"lastUpdateWeek","type":"uint16","internalType":"uint16"},{"name":"updateWeeksBitmap","type":"uint8","internalType":"uint8"}],"stateMutability":"view"},{"type":"function","name":"accountWeeklyMaxStake","inputs":[{"name":"account","type":"address","internalType":"address"},{"name":"week","type":"uint256","internalType":"uint256"}],"outputs":[{"name":"amount","type":"uint256","internalType":"uint256"}],"stateMutability":"view"},{"type":"function","name":"accountWeeklyToRealize","inputs":[{"name":"account","type":"address","internalType":"address"},{"name":"week","type":"uint256","internalType":"uint256"}],"outputs":[{"name":"weightPersistent","type":"uint128","internalType":"uint128"},{"name":"weight","type":"uint128","internalType":"uint128"}],"stateMutability":"view"},{"type":"function","name":"approvedCaller","inputs":[{"name":"account","type":"address","internalType":"address"},{"name":"caller","type":"address","internalType":"address"}],"outputs":[{"name":"approvalStatus","type":"uint8","internalType":"enum YearnBoostedStaker.ApprovalStatus"}],"stateMutability":"view"},{"type":"function","name":"approvedWeightedStaker","inputs":[{"name":"staker","type":"address","internalType":"address"}],"outputs":[{"name":"approved","type":"bool","internalType":"bool"}],"stateMutability":"view"},{"type":"function","name":"balanceOf","inputs":[{"name":"_account","type":"address","internalType":"address"}],"outputs":[{"name":"","type":"uint256","internalType":"uint256"}],"stateMutability":"view"},{"type":"function","name":"checkpointAccount","inputs":[{"name":"_account","type":"address","internalType":"address"}],"outputs":[{"name":"acctData","type":"tuple","internalType":"struct YearnBoostedStaker.AccountData","components":[{"name":"realizedStake","type":"uint112","internalType":"uint112"},{"name":"pendingStake","type":"uint112","internalType":"uint112"},{"name":"lastUpdateWeek","type":"uint16","internalType":"uint16"},{"name":"updateWeeksBitmap","type":"uint8","internalType":"uint8"}]},{"name":"weight","type":"uint256","internalType":"uint256"}],"stateMutability":"nonpayable"},{"type":"function","name":"checkpointAccountWithLimit","inputs":[{"name":"_account","type":"address","internalType":"address"},{"name":"_week","type":"uint256","internalType":"uint256"}],"outputs":[{"name":"acctData","type":"tuple","internalType":"struct YearnBoostedStaker.AccountData","components":[{"name":"realizedStake","type":"uint112","internalType":"uint112"},{"name":"pendingStake","type":"uint112","internalType":"uint112"},{"name":"lastUpdateWeek","type":"uint16","internalType":"uint16"},{"name":"updateWeeksBitmap","type":"uint8","internalType":"uint8"}]},{"name":"weight","type":"uint256","internalType":"uint256"}],"stateMutability":"nonpayable"},{"type":"function","name":"checkpointGlobal","inputs":[],"outputs":[{"name":"","type":"uint256","internalType":"uint256"}],"stateMutability":"nonpayable"},{"type":"function","name":"decimals","inputs":[],"outputs":[{"name":"","type":"uint8","internalType":"uint8"}],"stateMutability":"view"},{"type":"function","name":"getAccountWeight","inputs":[{"name":"account","type":"address","internalType":"address"}],"outputs":[{"name":"","type":"uint256","internalType":"uint256"}],"stateMutability":"view"},{"type":"function","name":"getAccountWeightAt","inputs":[{"name":"_account","type":"address","internalType":"address"},{"name":"_week","type":"uint256","internalType":"uint256"}],"outputs":[{"name":"","type":"uint256","internalType":"uint256"}],"stateMutability":"view"},{"type":"function","name":"getGlobalWeight","inputs":[],"outputs":[{"name":"","type":"uint256","internalType":"uint256"}],"stateMutability":"view"},{"type":"function","name":"getGlobalWeightAt","inputs":[{"name":"week","type":"uint256","internalType":"uint256"}],"outputs":[{"name":"","type":"uint256","internalType":"uint256"}],"stateMutability":"view"},{"type":"function","name":"getWeek","inputs":[],"outputs":[{"name":"week","type":"uint256","internalType":"uint256"}],"stateMutability":"view"},{"type":"function","name":"globalGrowthRate","inputs":[],"outputs":[{"name":"","type":"uint112","internalType":"uint112"}],"stateMutability":"view"},{"type":"function","name":"globalLastUpdateWeek","inputs":[],"outputs":[{"name":"","type":"uint16","internalType":"uint16"}],"stateMutability":"view"},{"type":"function","name":"globalWeeklyMaxStake","inputs":[{"name":"week","type":"uint256","internalType":"uint256"}],"outputs":[{"name":"amount","type":"uint256","internalType":"uint256"}],"stateMutability":"view"},{"type":"function","name":"globalWeeklyToRealize","inputs":[{"name":"week","type":"uint256","internalType":"uint256"}],"outputs":[{"name":"weightPersistent","type":"uint128","internalType":"uint128"},{"name":"weight","type":"uint128","internalType":"uint128"}],"stateMutability":"view"},{"type":"function","name":"owner","inputs":[],"outputs":[{"name":"","type":"address","internalType":"address"}],"stateMutability":"view"},{"type":"function","name":"pendingOwner","inputs":[],"outputs":[{"name":"","type":"address","internalType":"address"}],"stateMutability":"view"},{"type":"function","name":"setApprovedCaller","inputs":[{"name":"_caller","type":"address","internalType":"address"},{"name":"_status","type":"uint8","internalType":"enum YearnBoostedStaker.ApprovalStatus"}],"outputs":[],"stateMutability":"nonpayable"},{"type":"function","name":"setWeightedStaker","inputs":[{"name":"_staker","type":"address","internalType":"address"},{"name":"_approved","type":"bool","internalType":"bool"}],"outputs":[],"stateMutability":"nonpayable"},{"type":"function","name":"stake","inputs":[{"name":"_amount","type":"uint256","internalType":"uint256"}],"outputs":[{"name":"","type":"uint256","internalType":"uint256"}],"stateMutability":"nonpayable"},{"type":"function","name":"stakeAsMaxWeighted","inputs":[{"name":"_account","type":"address","internalType":"address"},{"name":"_amount","type":"uint256","internalType":"uint256"}],"outputs":[{"name":"","type":"uint256","internalType":"uint256"}],"stateMutability":"nonpayable"},{"type":"function","name":"stakeFor","inputs":[{"name":"_account","type":"address","internalType":"address"},{"name":"_amount","type":"uint256","internalType":"uint256"}],"outputs":[{"name":"","type":"uint256","internalType":"uint256"}],"stateMutability":"nonpayable"},{"type":"function","name":"stakeToken","inputs":[],"outputs":[{"name":"","type":"address","internalType":"contract IERC20"}],"stateMutability":"view"},{"type":"function","name":"sweep","inputs":[{"name":"_token","type":"address","internalType":"address"}],"outputs":[],"stateMutability":"nonpayable"},{"type":"function","name":"totalSupply","inputs":[],"outputs":[{"name":"","type":"uint256","internalType":"uint256"}],"stateMutability":"view"},{"type":"function","name":"transferOwnership","inputs":[{"name":"_pendingOwner","type":"address","internalType":"address"}],"outputs":[],"stateMutability":"nonpayable"},{"type":"function","name":"unstake","inputs":[{"name":"_amount","type":"uint256","internalType":"uint256"},{"name":"_receiver","type":"address","internalType":"address"}],"outputs":[{"name":"","type":"uint256","internalType":"uint256"}],"stateMutability":"nonpayable"},{"type":"function","name":"unstakeFor","inputs":[{"name":"_account","type":"address","internalType":"address"},{"name":"_amount","type":"uint256","internalType":"uint256"},{"name":"_receiver","type":"address","internalType":"address"}],"outputs":[{"name":"","type":"uint256","internalType":"uint256"}],"stateMutability":"nonpayable"},{"type":"event","name":"ApprovedCallerSet","inputs":[{"name":"account","type":"address","indexed":true,"internalType":"address"},{"name":"caller","type":"address","indexed":true,"internalType":"address"},{"name":"status","type":"uint8","indexed":false,"internalType":"enum YearnBoostedStaker.ApprovalStatus"}],"anonymous":false},{"type":"event","name":"OwnershipTransferred","inputs":[{"name":"newOwner","type":"address","indexed":true,"internalType":"address"}],"anonymous":false},{"type":"event","name":"Staked","inputs":[{"name":"account","type":"address","indexed":true,"internalType":"address"},{"name":"week","type":"uint256","indexed":true,"internalType":"uint256"},{"name":"amount","type":"uint256","indexed":false,"internalType":"uint256"},{"name":"newUserWeight","type":"uint256","indexed":false,"internalType":"uint256"},{"name":"weightAdded","type":"uint256","indexed":false,"internalType":"uint256"}],"anonymous":false},{"type":"event","name":"Unstaked","inputs":[{"name":"account","type":"address","indexed":true,"internalType":"address"},{"name":"week","type":"uint256","indexed":true,"internalType":"uint256"},{"name":"amount","type":"uint256","indexed":false,"internalType":"uint256"},{"name":"newUserWeight","type":"uint256","indexed":false,"internalType":"uint256"},{"name":"weightRemoved","type":"uint256","indexed":false,"internalType":"uint256"}],"anonymous":false},{"type":"event","name":"WeightedStakerSet","inputs":[{"name":"staker","type":"address","indexed":true,"internalType":"address"},{"name":"approved","type":"bool","indexed":false,"internalType":"bool"}],"anonymous":false}],"bytecode":{"object":"0x61012060405234801562000011575f80fd5b5060405162005375380380620053758339818101604052810190620000379190620002e7565b8060095f6101000a81548173ffffffffffffffffffffffffffffffffffffffff021916908373ffffffffffffffffffffffffffffffffffffffff1602179055508073ffffffffffffffffffffffffffffffffffffffff167f04dba622d284ed0014ee4b9a6a68386be1a4c08a4913ae272de89199cc68616360405160405180910390a28373ffffffffffffffffffffffffffffffffffffffff1660e08173ffffffffffffffffffffffffffffffffffffffff16815250508373ffffffffffffffffffffffffffffffffffffffff1663313ce5676040518163ffffffff1660e01b8152600401602060405180830381865afa15801562000138573d5f803e3d5ffd5b505050506040513d601f19601f820116820180604052508101906200015e919062000391565b60ff166101008160ff16815250505f831180156200017d575060078311155b620001bf576040517f08c379a0000000000000000000000000000000000000000000000000000000008152600401620001b6906200041f565b60405180910390fd5b82608081815250506080516001901b60ff1660a08160ff16815250505f8203620001f1574260c0818152505062000240565b4282111562000237576040517f08c379a00000000000000000000000000000000000000000000000000000000081526004016200022e906200048d565b60405180910390fd5b8160c081815250505b50505050620004ad565b5f80fd5b5f73ffffffffffffffffffffffffffffffffffffffff82169050919050565b5f62000279826200024e565b9050919050565b6200028b816200026d565b811462000296575f80fd5b50565b5f81519050620002a98162000280565b92915050565b5f819050919050565b620002c381620002af565b8114620002ce575f80fd5b50565b5f81519050620002e181620002b8565b92915050565b5f805f80608085870312156200030257620003016200024a565b5b5f620003118782880162000299565b94505060206200032487828801620002d1565b93505060406200033787828801620002d1565b92505060606200034a8782880162000299565b91505092959194509250565b5f60ff82169050919050565b6200036d8162000356565b811462000378575f80fd5b50565b5f815190506200038b8162000362565b92915050565b5f60208284031215620003a957620003a86200024a565b5b5f620003b8848285016200037b565b91505092915050565b5f82825260208201905092915050565b7f496e76616c6964207765656b73000000000000000000000000000000000000005f82015250565b5f62000407600d83620003c1565b91506200041482620003d1565b602082019050919050565b5f6020820190508181035f8301526200043881620003f9565b9050919050565b7f21506173740000000000000000000000000000000000000000000000000000005f82015250565b5f62000475600583620003c1565b915062000482826200043f565b602082019050919050565b5f6020820190508181035f830152620004a68162000467565b9050919050565b60805160a05160c05160e05161010051614e21620005545f395f61122501525f8181610891015281816114c501528181611d8301528181612c1b015261396001525f81816117d20152611e6301525f8181610cf401528181610d18015281816114e9015281816130a301526130c701525f818161108701528181611b23015281816121c50152818161223c0152818161287801528181612ff6015261338d0152614e215ff3fe608060405234801561000f575f80fd5b506004361061021a575f3560e01c806370a0823111610123578063a4733df9116100ab578063deb906e71161007a578063deb906e7146106b7578063e30c3978146106ea578063e399f29f14610708578063eecbc2ae14610739578063f2fde38b146107695761021a565b8063a4733df91461061b578063a694fc3a1461064b578063b48e95191461067b578063ddaa26ad146106995761021a565b8063874d6d81116100f2578063874d6d811461055f57806388ba63ba1461057d5780638da5cb5b146105ae57806395255285146105cc5780639e94080e146105ea5761021a565b806370a08231146104d757806379ba509714610507578063802c4a0f146105115780638381e1821461052f5761021a565b80632ee40908116101a657806349d1818d1161017557806349d1818d1461041f5780634b3b140a1461043b578063510e995d1461046b57806351ed6a301461049b5780636f68fa1e146104b95761021a565b80632ee40908146103715780633011ef57146103a1578063313ce567146103d15780633ea01b34146103ef5761021a565b8063143d7084116101ed578063143d7084146102cb57806318160ddd146102fb578063231aed7c1461031957806328f1ae511461033557806329340501146103535761021a565b806301681a621461021e578063026800d01461023a57806307f93a381461026a57806312cf9dad1461029a575b5f80fd5b61023860048036038101906102339190613f7c565b610785565b005b610254600480360381019061024f9190613fda565b61094c565b6040516102619190614039565b60405180910390f35b610284600480360381019061027f9190614052565b610ab3565b6040516102919190614039565b60405180910390f35b6102b460048036038101906102af9190614052565b610dec565b6040516102c2929190614142565b60405180910390f35b6102e560048036038101906102e09190613f7c565b610f19565b6040516102f29190614183565b60405180910390f35b610303610f36565b6040516103109190614039565b60405180910390f35b610333600480360381019061032e91906141c6565b610f3c565b005b61033d611071565b60405161034a9190614213565b60405180910390f35b61035b611085565b6040516103689190614039565b60405180910390f35b61038b60048036038101906103869190614052565b6110a9565b6040516103989190614039565b60405180910390f35b6103bb60048036038101906103b6919061422c565b61120e565b6040516103c89190614039565b60405180910390f35b6103d9611223565b6040516103e69190614266565b60405180910390f35b61040960048036038101906104049190613f7c565b611247565b6040516104169190614039565b60405180910390f35b610439600480360381019061043491906142a2565b611260565b005b6104556004803603810190610450919061422c565b611368565b6040516104629190614039565b60405180910390f35b61048560048036038101906104809190614052565b6114a3565b6040516104929190614039565b60405180910390f35b6104a36114c3565b6040516104b0919061433b565b60405180910390f35b6104c16114e7565b6040516104ce9190614266565b60405180910390f35b6104f160048036038101906104ec9190613f7c565b61150b565b6040516104fe9190614039565b60405180910390f35b61050f61164d565b005b6105196117a1565b6040516105269190614039565b60405180910390f35b61054960048036038101906105449190614354565b6117b7565b6040516105569190614039565b60405180910390f35b6105676117cb565b6040516105749190614039565b60405180910390f35b61059760048036038101906105929190614052565b611807565b6040516105a59291906143bc565b60405180910390f35b6105b6611868565b6040516105c391906143f2565b60405180910390f35b6105d461188d565b6040516105e1919061441a565b60405180910390f35b61060460048036038101906105ff9190613f7c565b6118ac565b604051610612929190614142565b60405180910390f35b61063560048036038101906106309190614052565b6119c7565b6040516106429190614039565b60405180910390f35b6106656004803603810190610660919061422c565b611e34565b6040516106729190614039565b60405180910390f35b610683611e46565b6040516106909190614039565b60405180910390f35b6106a1611e61565b6040516106ae9190614039565b60405180910390f35b6106d160048036038101906106cc9190613f7c565b611e85565b6040516106e19493929190614433565b60405180910390f35b6106f2611efb565b6040516106ff91906143f2565b60405180910390f35b610722600480360381019061071d919061422c565b611f20565b6040516107309291906143bc565b60405180910390f35b610753600480360381019061074e9190614476565b611f76565b6040516107609190614527565b60405180910390f35b610783600480360381019061077e9190613f7c565b611fa0565b005b60095f9054906101000a900473ffffffffffffffffffffffffffffffffffffffff1673ffffffffffffffffffffffffffffffffffffffff163373ffffffffffffffffffffffffffffffffffffffff1614610814576040517f08c379a000000000000000000000000000000000000000000000000000000000815260040161080b9061459a565b60405180910390fd5b5f8173ffffffffffffffffffffffffffffffffffffffff166370a08231306040518263ffffffff1660e01b815260040161084e91906143f2565b602060405180830381865afa158015610869573d5f803e3d5ffd5b505050506040513d601f19601f8201168201806040525081019061088d91906145cc565b90507f000000000000000000000000000000000000000000000000000000000000000073ffffffffffffffffffffffffffffffffffffffff168273ffffffffffffffffffffffffffffffffffffffff16036108f357600854816108f09190614624565b90505b5f8111156109485761094760095f9054906101000a900473ffffffffffffffffffffffffffffffffffffffff16828473ffffffffffffffffffffffffffffffffffffffff166120729092919063ffffffff16565b5b5050565b5f8373ffffffffffffffffffffffffffffffffffffffff163373ffffffffffffffffffffffffffffffffffffffff1614610a9f575f600b5f8673ffffffffffffffffffffffffffffffffffffffff1673ffffffffffffffffffffffffffffffffffffffff1681526020019081526020015f205f3373ffffffffffffffffffffffffffffffffffffffff1673ffffffffffffffffffffffffffffffffffffffff1681526020019081526020015f205f9054906101000a900460ff169050600380811115610a1b57610a1a6144b4565b5b816003811115610a2e57610a2d6144b4565b5b1480610a5e575060026003811115610a4957610a486144b4565b5b816003811115610a5c57610a5b6144b4565b5b145b610a9d576040517f08c379a0000000000000000000000000000000000000000000000000000000008152600401610a94906146a1565b60405180910390fd5b505b610aaa8484846120f8565b90509392505050565b5f610abc6117cb565b821115610acb575f9050610de6565b5f805f8573ffffffffffffffffffffffffffffffffffffffff1673ffffffffffffffffffffffffffffffffffffffff1681526020019081526020015f206040518060800160405290815f82015f9054906101000a90046dffffffffffffffffffffffffffff166dffffffffffffffffffffffffffff166dffffffffffffffffffffffffffff1681526020015f8201600e9054906101000a90046dffffffffffffffffffffffffffff166dffffffffffffffffffffffffffff166dffffffffffffffffffffffffffff1681526020015f8201601c9054906101000a900461ffff1661ffff1661ffff1681526020015f8201601e9054906101000a900460ff1660ff1660ff168152505090505f81604001519050838161ffff1610610c3e5760015f8673ffffffffffffffffffffffffffffffffffffffff1673ffffffffffffffffffffffffffffffffffffffff1681526020019081526020015f205f8581526020019081526020015f205492505050610de6565b5f60015f8773ffffffffffffffffffffffffffffffffffffffff1673ffffffffffffffffffffffffffffffffffffffff1681526020019081526020015f205f8361ffff1681526020019081526020015f205490505f83602001516dffffffffffffffffffffffffffff1690505f8103610cbd5781945050505050610de6565b5f846060015190505b868461ffff161015610ddd5783806001019450508183610ce691906146bf565b925060018160ff16901b90507f000000000000000000000000000000000000000000000000000000000000000060ff167f0000000000000000000000000000000000000000000000000000000000000000821660ff1603610dd85760025f8973ffffffffffffffffffffffffffffffffffffffff1673ffffffffffffffffffffffffffffffffffffffff1681526020019081526020015f205f8561ffff1681526020019081526020015f205f0160109054906101000a90046fffffffffffffffffffffffffffffffff166fffffffffffffffffffffffffffffffff1682610dcd9190614624565b91505f820315610ddd575b610cc6565b82955050505050505b92915050565b610df4613ed3565b5f80610dfe6117cb565b9050808410610e0b578093505b610e158585612c70565b8093508194505050825f808773ffffffffffffffffffffffffffffffffffffffff1673ffffffffffffffffffffffffffffffffffffffff1681526020019081526020015f205f820151815f015f6101000a8154816dffffffffffffffffffffffffffff02191690836dffffffffffffffffffffffffffff1602179055506020820151815f01600e6101000a8154816dffffffffffffffffffffffffffff02191690836dffffffffffffffffffffffffffff1602179055506040820151815f01601c6101000a81548161ffff021916908361ffff1602179055506060820151815f01601e6101000a81548160ff021916908360ff160217905550905050509250929050565b600c602052805f5260405f205f915054906101000a900460ff1681565b60085481565b60095f9054906101000a900473ffffffffffffffffffffffffffffffffffffffff1673ffffffffffffffffffffffffffffffffffffffff163373ffffffffffffffffffffffffffffffffffffffff1614610fcb576040517f08c379a0000000000000000000000000000000000000000000000000000000008152600401610fc29061459a565b60405180910390fd5b80600c5f8473ffffffffffffffffffffffffffffffffffffffff1673ffffffffffffffffffffffffffffffffffffffff1681526020019081526020015f205f6101000a81548160ff0219169083151502179055508173ffffffffffffffffffffffffffffffffffffffff167f386b58ddc1936aa97344d1a8d49c247eec866f85d00106bd7d0b516079819c9f826040516110659190614183565b60405180910390a25050565b6004600e9054906101000a900461ffff1681565b7f000000000000000000000000000000000000000000000000000000000000000081565b5f8273ffffffffffffffffffffffffffffffffffffffff163373ffffffffffffffffffffffffffffffffffffffff16146111fc575f600b5f8573ffffffffffffffffffffffffffffffffffffffff1673ffffffffffffffffffffffffffffffffffffffff1681526020019081526020015f205f3373ffffffffffffffffffffffffffffffffffffffff1673ffffffffffffffffffffffffffffffffffffffff1681526020019081526020015f205f9054906101000a900460ff169050600380811115611178576111776144b4565b5b81600381111561118b5761118a6144b4565b5b14806111bb5750600160038111156111a6576111a56144b4565b5b8160038111156111b9576111b86144b4565b5b145b6111fa576040517f08c379a00000000000000000000000000000000000000000000000000000000081526004016111f1906146a1565b60405180910390fd5b505b611206838361325e565b905092915050565b6007602052805f5260405f205f915090505481565b7f000000000000000000000000000000000000000000000000000000000000000081565b5f611259826112546117cb565b610ab3565b9050919050565b80600b5f3373ffffffffffffffffffffffffffffffffffffffff1673ffffffffffffffffffffffffffffffffffffffff1681526020019081526020015f205f8473ffffffffffffffffffffffffffffffffffffffff1673ffffffffffffffffffffffffffffffffffffffff1681526020019081526020015f205f6101000a81548160ff021916908360038111156112fa576112f96144b4565b5b02179055508173ffffffffffffffffffffffffffffffffffffffff163373ffffffffffffffffffffffffffffffffffffffff167fcdadcd1f1a942380f3ff00a651eee9878ae0c68bc11b4abb3b2c96d8247716188360405161135c9190614527565b60405180910390a35050565b5f806113726117cb565b905080831115611385575f91505061149e565b5f6004600e9054906101000a900461ffff1690505f60045f9054906101000a90046dffffffffffffffffffffffffffff166dffffffffffffffffffffffffffff1690508161ffff1685116113ef5760055f8681526020019081526020015f2054935050505061149e565b5f60055f8461ffff1681526020019081526020015f205490505f820361141b578094505050505061149e565b5b858361ffff161015611496578280600101935050818161143c91906146bf565b905060065f8461ffff1681526020019081526020015f205f0160109054906101000a90046fffffffffffffffffffffffffffffffff166fffffffffffffffffffffffffffffffff168261148f9190614624565b915061141c565b809450505050505b919050565b6003602052815f5260405f20602052805f5260405f205f91509150505481565b7f000000000000000000000000000000000000000000000000000000000000000081565b7f000000000000000000000000000000000000000000000000000000000000000081565b5f805f808473ffffffffffffffffffffffffffffffffffffffff1673ffffffffffffffffffffffffffffffffffffffff1681526020019081526020015f206040518060800160405290815f82015f9054906101000a90046dffffffffffffffffffffffffffff166dffffffffffffffffffffffffffff166dffffffffffffffffffffffffffff1681526020015f8201600e9054906101000a90046dffffffffffffffffffffffffffff166dffffffffffffffffffffffffffff166dffffffffffffffffffffffffffff1681526020015f8201601c9054906101000a900461ffff1661ffff1661ffff1681526020015f8201601e9054906101000a900460ff1660ff1660ff16815250509050805f0151816020015161162991906146f2565b60026116359190614733565b6dffffffffffffffffffffffffffff16915050919050565b600a5f9054906101000a900473ffffffffffffffffffffffffffffffffffffffff1673ffffffffffffffffffffffffffffffffffffffff163373ffffffffffffffffffffffffffffffffffffffff16146116dc576040517f08c379a00000000000000000000000000000000000000000000000000000000081526004016116d39061459a565b60405180910390fd5b3360095f6101000a81548173ffffffffffffffffffffffffffffffffffffffff021916908373ffffffffffffffffffffffffffffffffffffffff1602179055505f600a5f6101000a81548173ffffffffffffffffffffffffffffffffffffffff021916908373ffffffffffffffffffffffffffffffffffffffff1602179055503373ffffffffffffffffffffffffffffffffffffffff167f04dba622d284ed0014ee4b9a6a68386be1a4c08a4913ae272de89199cc68616360405160405180910390a2565b5f6117b26117ad6117cb565b611368565b905090565b5f6117c33384846120f8565b905092915050565b5f62093a807f00000000000000000000000000000000000000000000000000000000000000004203816118015761180061476f565b5b04905090565b6002602052815f5260405f20602052805f5260405f205f9150915050805f015f9054906101000a90046fffffffffffffffffffffffffffffffff1690805f0160109054906101000a90046fffffffffffffffffffffffffffffffff16905082565b60095f9054906101000a900473ffffffffffffffffffffffffffffffffffffffff1681565b60045f9054906101000a90046dffffffffffffffffffffffffffff1681565b6118b4613ed3565b5f6118c6836118c16117cb565b612c70565b8092508193505050815f808573ffffffffffffffffffffffffffffffffffffffff1673ffffffffffffffffffffffffffffffffffffffff1681526020019081526020015f205f820151815f015f6101000a8154816dffffffffffffffffffffffffffff02191690836dffffffffffffffffffffffffffff1602179055506020820151815f01600e6101000a8154816dffffffffffffffffffffffffffff02191690836dffffffffffffffffffffffffffff1602179055506040820151815f01601c6101000a81548161ffff021916908361ffff1602179055506060820151815f01601e6101000a81548160ff021916908360ff160217905550905050915091565b5f600c5f3373ffffffffffffffffffffffffffffffffffffffff1673ffffffffffffffffffffffffffffffffffffffff1681526020019081526020015f205f9054906101000a900460ff16611a51576040517f08c379a0000000000000000000000000000000000000000000000000000000008152600401611a48906147e6565b60405180910390fd5b600182118015611a7057506dffffffffffffffffffffffffffff801682105b611aaf576040517f08c379a0000000000000000000000000000000000000000000000000000000008152600401611aa69061484e565b60405180910390fd5b5f611ab86117cb565b90505f80611ac68684612c70565b915091505f611ad484613a13565b90505f600187901c9050600181901b965080845f01818151611af691906146f2565b9150906dffffffffffffffffffffffffffff1690816dffffffffffffffffffffffffffff168152505060017f0000000000000000000000000000000000000000000000000000000000000000611b4c91906146bf565b81611b57919061486c565b90508660035f8a73ffffffffffffffffffffffffffffffffffffffff1673ffffffffffffffffffffffffffffffffffffffff1681526020019081526020015f205f8781526020019081526020015f205f828254611bb491906146bf565b925050819055508660075f8781526020019081526020015f205f828254611bdb91906146bf565b925050819055508083611bee91906146bf565b60015f8a73ffffffffffffffffffffffffffffffffffffffff1673ffffffffffffffffffffffffffffffffffffffff1681526020019081526020015f205f8781526020019081526020015f208190555080826dffffffffffffffffffffffffffff16611c5a91906146bf565b60055f8781526020019081526020015f2081905550835f808a73ffffffffffffffffffffffffffffffffffffffff1673ffffffffffffffffffffffffffffffffffffffff1681526020019081526020015f205f820151815f015f6101000a8154816dffffffffffffffffffffffffffff02191690836dffffffffffffffffffffffffffff1602179055506020820151815f01600e6101000a8154816dffffffffffffffffffffffffffff02191690836dffffffffffffffffffffffffffff1602179055506040820151815f01601c6101000a81548161ffff021916908361ffff1602179055506060820151815f01601e6101000a81548160ff021916908360ff1602179055509050508660085f828254611d7491906146bf565b92505081905550611dc83330897f000000000000000000000000000000000000000000000000000000000000000073ffffffffffffffffffffffffffffffffffffffff16613ba7909392919063ffffffff16565b848873ffffffffffffffffffffffffffffffffffffffff167f9cfd25589d1eb8ad71e342a86a8524e83522e3936c0803048c08f6d9ad974f40898487611e0e91906146bf565b85604051611e1e939291906148ad565b60405180910390a3869550505050505092915050565b5f611e3f338361325e565b9050919050565b5f80611e506117cb565b9050611e5b81613a13565b91505090565b7f000000000000000000000000000000000000000000000000000000000000000081565b5f602052805f5260405f205f91509050805f015f9054906101000a90046dffffffffffffffffffffffffffff1690805f01600e9054906101000a90046dffffffffffffffffffffffffffff1690805f01601c9054906101000a900461ffff1690805f01601e9054906101000a900460ff16905084565b600a5f9054906101000a900473ffffffffffffffffffffffffffffffffffffffff1681565b6006602052805f5260405f205f91509050805f015f9054906101000a90046fffffffffffffffffffffffffffffffff1690805f0160109054906101000a90046fffffffffffffffffffffffffffffffff16905082565b600b602052815f5260405f20602052805f5260405f205f915091509054906101000a900460ff1681565b60095f9054906101000a900473ffffffffffffffffffffffffffffffffffffffff1673ffffffffffffffffffffffffffffffffffffffff163373ffffffffffffffffffffffffffffffffffffffff161461202f576040517f08c379a00000000000000000000000000000000000000000000000000000000081526004016120269061459a565b60405180910390fd5b80600a5f6101000a81548173ffffffffffffffffffffffffffffffffffffffff021916908373ffffffffffffffffffffffffffffffffffffffff16021790555050565b6120f38363a9059cbb60e01b84846040516024016120919291906148e2565b604051602081830303815290604052907bffffffffffffffffffffffffffffffffffffffffffffffffffffffff19166020820180517bffffffffffffffffffffffffffffffffffffffffffffffffffffffff8381831617835250505050613c30565b505050565b5f60018311801561211857506dffffffffffffffffffffffffffff801683105b612157576040517f08c379a000000000000000000000000000000000000000000000000000000000815260040161214e9061484e565b60405180910390fd5b5f6121606117cb565b90505f61216d8683612c70565b50905061217982613a13565b505f816060015190505f80600188901c90506001816fffffffffffffffffffffffffffffffff16901b6fffffffffffffffffffffffffffffffff1697505f8360ff161115612837575f5b7f0000000000000000000000000000000000000000000000000000000000000000816fffffffffffffffffffffffffffffffff161015612823575f816fffffffffffffffffffffffffffffffff166001901b90508060ff1681861660ff1603612815575f826fffffffffffffffffffffffffffffffff167f00000000000000000000000000000000000000000000000000000000000000008961226691906146bf565b6122709190614624565b90505f60025f8e73ffffffffffffffffffffffffffffffffffffffff1673ffffffffffffffffffffffffffffffffffffffff1681526020019081526020015f205f8381526020019081526020015f205f0160109054906101000a90046fffffffffffffffffffffffffffffffff169050806fffffffffffffffffffffffffffffffff16856fffffffffffffffffffffffffffffffff161115612553576001846123199190614909565b81612324919061494c565b8661232f9190614909565b95505f60025f8f73ffffffffffffffffffffffffffffffffffffffff1673ffffffffffffffffffffffffffffffffffffffff1681526020019081526020015f205f8481526020019081526020015f205f0160106101000a8154816fffffffffffffffffffffffffffffffff02191690836fffffffffffffffffffffffffffffffff1602179055508060065f8481526020019081526020015f205f0160108282829054906101000a90046fffffffffffffffffffffffffffffffff166123f49190614988565b92506101000a8154816fffffffffffffffffffffffffffffffff02191690836fffffffffffffffffffffffffffffffff1602179055505f846fffffffffffffffffffffffffffffffff160361253b575f60025f8f73ffffffffffffffffffffffffffffffffffffffff1673ffffffffffffffffffffffffffffffffffffffff1681526020019081526020015f205f8481526020019081526020015f205f015f6101000a8154816fffffffffffffffffffffffffffffffff02191690836fffffffffffffffffffffffffffffffff1602179055508060065f8481526020019081526020015f205f015f8282829054906101000a90046fffffffffffffffffffffffffffffffff166125049190614988565b92506101000a8154816fffffffffffffffffffffffffffffffff02191690836fffffffffffffffffffffffffffffffff1602179055505b8287189650808561254c9190614988565b9450612812565b6001846125609190614909565b8561256b919061494c565b866125769190614909565b95508460025f8f73ffffffffffffffffffffffffffffffffffffffff1673ffffffffffffffffffffffffffffffffffffffff1681526020019081526020015f205f8481526020019081526020015f205f0160108282829054906101000a90046fffffffffffffffffffffffffffffffff166125f19190614988565b92506101000a8154816fffffffffffffffffffffffffffffffff02191690836fffffffffffffffffffffffffffffffff1602179055508460065f8481526020019081526020015f205f0160108282829054906101000a90046fffffffffffffffffffffffffffffffff166126659190614988565b92506101000a8154816fffffffffffffffffffffffffffffffff02191690836fffffffffffffffffffffffffffffffff1602179055505f846fffffffffffffffffffffffffffffffff16036127d6578460025f8f73ffffffffffffffffffffffffffffffffffffffff1673ffffffffffffffffffffffffffffffffffffffff1681526020019081526020015f205f8481526020019081526020015f205f015f8282829054906101000a90046fffffffffffffffffffffffffffffffff1661272c9190614988565b92506101000a8154816fffffffffffffffffffffffffffffffff02191690836fffffffffffffffffffffffffffffffff1602179055508460065f8481526020019081526020015f205f015f8282829054906101000a90046fffffffffffffffffffffffffffffffff1661279f9190614988565b92506101000a8154816fffffffffffffffffffffffffffffffff02191690836fffffffffffffffffffffffffffffffff1602179055505b806fffffffffffffffffffffffffffffffff16856fffffffffffffffffffffffffffffffff16036128075782871896505b5f9450505050612823565b50505b8180600101925050506121c3565b5082846060019060ff16908160ff16815250505b5f816fffffffffffffffffffffffffffffffff1660018a901c61285a9190614624565b90505f826fffffffffffffffffffffffffffffffff161115612926577f000000000000000000000000000000000000000000000000000000000000000060016128a391906146bf565b826128ae919061494c565b836128b99190614909565b925081855f018181516128cc91906149cb565b9150906dffffffffffffffffffffffffffff1690816dffffffffffffffffffffffffffff16815250505f85602001906dffffffffffffffffffffffffffff1690816dffffffffffffffffffffffffffff1681525050612962565b808560200181815161293891906149cb565b9150906dffffffffffffffffffffffffffff1690816dffffffffffffffffffffffffffff16815250505b845f808c73ffffffffffffffffffffffffffffffffffffffff1673ffffffffffffffffffffffffffffffffffffffff1681526020019081526020015f205f820151815f015f6101000a8154816dffffffffffffffffffffffffffff02191690836dffffffffffffffffffffffffffff1602179055506020820151815f01600e6101000a8154816dffffffffffffffffffffffffffff02191690836dffffffffffffffffffffffffffff1602179055506040820151815f01601c6101000a81548161ffff021916908361ffff1602179055506060820151815f01601e6101000a81548160ff021916908360ff1602179055509050508060045f8282829054906101000a90046dffffffffffffffffffffffffffff16612a8091906149cb565b92506101000a8154816dffffffffffffffffffffffffffff02191690836dffffffffffffffffffffffffffff160217905550826fffffffffffffffffffffffffffffffff1660055f8881526020019081526020015f205f828254612ae49190614624565b925050819055505f836fffffffffffffffffffffffffffffffff1660015f8d73ffffffffffffffffffffffffffffffffffffffff1673ffffffffffffffffffffffffffffffffffffffff1681526020019081526020015f205f8981526020019081526020015f2054612b569190614624565b90508060015f8d73ffffffffffffffffffffffffffffffffffffffff1673ffffffffffffffffffffffffffffffffffffffff1681526020019081526020015f205f8981526020019081526020015f20819055508960085f828254612bba9190614624565b92505081905550868b73ffffffffffffffffffffffffffffffffffffffff167fdcfd2b4017d03f7e541021db793b2f9b31e4acdee005f789e52853c390e3e9628c8488604051612c0c93929190614a3c565b60405180910390a3612c5f898b7f000000000000000000000000000000000000000000000000000000000000000073ffffffffffffffffffffffffffffffffffffffff166120729092919063ffffffff16565b899750505050505050509392505050565b612c78613ed3565b5f805f8573ffffffffffffffffffffffffffffffffffffffff1673ffffffffffffffffffffffffffffffffffffffff1681526020019081526020015f206040518060800160405290815f82015f9054906101000a90046dffffffffffffffffffffffffffff166dffffffffffffffffffffffffffff166dffffffffffffffffffffffffffff1681526020015f8201600e9054906101000a90046dffffffffffffffffffffffffffff166dffffffffffffffffffffffffffff166dffffffffffffffffffffffffffff1681526020015f8201601c9054906101000a900461ffff1661ffff1661ffff1681526020015f8201601e9054906101000a900460ff1660ff1660ff168152505091505f826040015161ffff169050808403612ded578260015f8773ffffffffffffffffffffffffffffffffffffffff1673ffffffffffffffffffffffffffffffffffffffff1681526020019081526020015f205f8381526020019081526020015f20549250925050613257565b808411612e2f576040517f08c379a0000000000000000000000000000000000000000000000000000000008152600401612e2690614ae1565b60405180910390fd5b5f83602001516dffffffffffffffffffffffffffff1690505f845f01516dffffffffffffffffffffffffffff1690505f8203612f98575f8114612f235760015f8873ffffffffffffffffffffffffffffffffffffffff1673ffffffffffffffffffffffffffffffffffffffff1681526020019081526020015f205f8481526020019081526020015f205493505b85831015612f225782806001019350508360015f8973ffffffffffffffffffffffffffffffffffffffff1673ffffffffffffffffffffffffffffffffffffffff1681526020019081526020015f205f8581526020019081526020015f2081905550612ebc565b5b855f808973ffffffffffffffffffffffffffffffffffffffff1673ffffffffffffffffffffffffffffffffffffffff1681526020019081526020015f205f01601c6101000a81548161ffff021916908361ffff16021790555085856040019061ffff16908161ffff1681525050505050613257565b60015f8873ffffffffffffffffffffffffffffffffffffffff1673ffffffffffffffffffffffffffffffffffffffff1681526020019081526020015f205f8481526020019081526020015f205493505f856060015190505f613025887f00000000000000000000000000000000000000000000000000000000000000008761302091906146bf565b613cf6565b90505b808510156131a0578480600101955050838661304491906146bf565b95508560015f8b73ffffffffffffffffffffffffffffffffffffffff1673ffffffffffffffffffffffffffffffffffffffff1681526020019081526020015f205f8781526020019081526020015f208190555060018260ff16901b91507f000000000000000000000000000000000000000000000000000000000000000060ff167f0000000000000000000000000000000000000000000000000000000000000000831660ff160361319b575f60025f8b73ffffffffffffffffffffffffffffffffffffffff1673ffffffffffffffffffffffffffffffffffffffff1681526020019081526020015f205f8781526020019081526020015f205f0160109054906101000a90046fffffffffffffffffffffffffffffffff166fffffffffffffffffffffffffffffffff169050808561317c9190614624565b9450808461318a91906146bf565b93505f850361319957506131a0565b505b613028565b5b878510156132075784806001019550508560015f8b73ffffffffffffffffffffffffffffffffffffffff1673ffffffffffffffffffffffffffffffffffffffff1681526020019081526020015f205f8781526020019081526020015f20819055506131a1565b6040518060800160405280846dffffffffffffffffffffffffffff168152602001856dffffffffffffffffffffffffffff1681526020018961ffff1681526020018360ff16815250965050505050505b9250929050565b5f60018211801561327e57506dffffffffffffffffffffffffffff801682105b6132bd576040517f08c379a00000000000000000000000000000000000000000000000000000000081526004016132b49061484e565b60405180910390fd5b5f6132c66117cb565b90505f806132d48684612c70565b915091505f6132e284613a13565b90505f600187901c9050600181901b9650808460200181815161330591906146f2565b9150906dffffffffffffffffffffffffffff1690816dffffffffffffffffffffffffffff16815250508060045f8282829054906101000a90046dffffffffffffffffffffffffffff1661335891906146f2565b92506101000a8154816dffffffffffffffffffffffffffff02191690836dffffffffffffffffffffffffffff1602179055505f7f0000000000000000000000000000000000000000000000000000000000000000866133b791906146bf565b90505f60025f8b73ffffffffffffffffffffffffffffffffffffffff1673ffffffffffffffffffffffffffffffffffffffff1681526020019081526020015f205f8381526020019081526020015f206040518060400160405290815f82015f9054906101000a90046fffffffffffffffffffffffffffffffff166fffffffffffffffffffffffffffffffff166fffffffffffffffffffffffffffffffff1681526020015f820160109054906101000a90046fffffffffffffffffffffffffffffffff166fffffffffffffffffffffffffffffffff166fffffffffffffffffffffffffffffffff1681525050905082816020018181516134b69190614909565b9150906fffffffffffffffffffffffffffffffff1690816fffffffffffffffffffffffffffffffff168152505082815f018181516134f49190614909565b9150906fffffffffffffffffffffffffffffffff1690816fffffffffffffffffffffffffffffffff16815250508060025f8c73ffffffffffffffffffffffffffffffffffffffff1673ffffffffffffffffffffffffffffffffffffffff1681526020019081526020015f205f8481526020019081526020015f205f820151815f015f6101000a8154816fffffffffffffffffffffffffffffffff02191690836fffffffffffffffffffffffffffffffff1602179055506020820151815f0160106101000a8154816fffffffffffffffffffffffffffffffff02191690836fffffffffffffffffffffffffffffffff16021790555090505060065f8381526020019081526020015f206040518060400160405290815f82015f9054906101000a90046fffffffffffffffffffffffffffffffff166fffffffffffffffffffffffffffffffff166fffffffffffffffffffffffffffffffff1681526020015f820160109054906101000a90046fffffffffffffffffffffffffffffffff166fffffffffffffffffffffffffffffffff166fffffffffffffffffffffffffffffffff1681525050905082816020018181516136ac9190614909565b9150906fffffffffffffffffffffffffffffffff1690816fffffffffffffffffffffffffffffffff168152505082815f018181516136ea9190614909565b9150906fffffffffffffffffffffffffffffffff1690816fffffffffffffffffffffffffffffffff16815250508060065f8481526020019081526020015f205f820151815f015f6101000a8154816fffffffffffffffffffffffffffffffff02191690836fffffffffffffffffffffffffffffffff1602179055506020820151815f0160106101000a8154816fffffffffffffffffffffffffffffffff02191690836fffffffffffffffffffffffffffffffff16021790555090505082856137b291906146bf565b60015f8c73ffffffffffffffffffffffffffffffffffffffff1673ffffffffffffffffffffffffffffffffffffffff1681526020019081526020015f205f8981526020019081526020015f208190555082846dffffffffffffffffffffffffffff1661381e91906146bf565b60055f8981526020019081526020015f20819055506001866060018181511791509060ff16908160ff1681525050855f808c73ffffffffffffffffffffffffffffffffffffffff1673ffffffffffffffffffffffffffffffffffffffff1681526020019081526020015f205f820151815f015f6101000a8154816dffffffffffffffffffffffffffff02191690836dffffffffffffffffffffffffffff1602179055506020820151815f01600e6101000a8154816dffffffffffffffffffffffffffff02191690836dffffffffffffffffffffffffffff1602179055506040820151815f01601c6101000a81548161ffff021916908361ffff1602179055506060820151815f01601e6101000a81548160ff021916908360ff1602179055509050508860085f82825461395191906146bf565b925050819055506139a533308b7f000000000000000000000000000000000000000000000000000000000000000073ffffffffffffffffffffffffffffffffffffffff16613ba7909392919063ffffffff16565b868a73ffffffffffffffffffffffffffffffffffffffff167f9cfd25589d1eb8ad71e342a86a8524e83522e3936c0803048c08f6d9ad974f408b86896139eb91906146bf565b876040516139fb939291906148ad565b60405180910390a38897505050505050505092915050565b5f806004600e9054906101000a900461ffff1690505f60045f9054906101000a90046dffffffffffffffffffffffffffff166dffffffffffffffffffffffffffff1690505f60055f8461ffff1681526020019081526020015f205490505f8103613a9f57846004600e6101000a81548161ffff021916908361ffff1602179055505f9350505050613ba2565b848361ffff1603613ab557809350505050613ba2565b5b848361ffff161015613b4a5782806001019350508181613ad691906146bf565b90508060055f8561ffff1681526020019081526020015f208190555060065f8461ffff1681526020019081526020015f205f0160109054906101000a90046fffffffffffffffffffffffffffffffff166fffffffffffffffffffffffffffffffff1682613b439190614624565b9150613ab6565b8160045f6101000a8154816dffffffffffffffffffffffffffff02191690836dffffffffffffffffffffffffffff160217905550846004600e6101000a81548161ffff021916908361ffff1602179055508093505050505b919050565b613c2a846323b872dd60e01b858585604051602401613bc893929190614aff565b604051602081830303815290604052907bffffffffffffffffffffffffffffffffffffffffffffffffffffffff19166020820180517bffffffffffffffffffffffffffffffffffffffffffffffffffffffff8381831617835250505050613c30565b50505050565b5f613c91826040518060400160405280602081526020017f5361666545524332303a206c6f772d6c6576656c2063616c6c206661696c65648152508573ffffffffffffffffffffffffffffffffffffffff16613d0e9092919063ffffffff16565b90505f81511480613cb2575080806020019051810190613cb19190614b48565b5b613cf1576040517f08c379a0000000000000000000000000000000000000000000000000000000008152600401613ce890614be3565b60405180910390fd5b505050565b5f818310613d045781613d06565b825b905092915050565b6060613d1c84845f85613d25565b90509392505050565b606082471015613d6a576040517f08c379a0000000000000000000000000000000000000000000000000000000008152600401613d6190614c71565b60405180910390fd5b5f808673ffffffffffffffffffffffffffffffffffffffff168587604051613d929190614cfb565b5f6040518083038185875af1925050503d805f8114613dcc576040519150601f19603f3d011682016040523d82523d5f602084013e613dd1565b606091505b5091509150613de287838387613dee565b92505050949350505050565b60608315613e4f575f835103613e4757613e0785613e62565b613e46576040517f08c379a0000000000000000000000000000000000000000000000000000000008152600401613e3d90614d5b565b60405180910390fd5b5b829050613e5a565b613e598383613e84565b5b949350505050565b5f808273ffffffffffffffffffffffffffffffffffffffff163b119050919050565b5f82511115613e965781518083602001fd5b806040517f08c379a0000000000000000000000000000000000000000000000000000000008152600401613eca9190614dcb565b60405180910390fd5b60405180608001604052805f6dffffffffffffffffffffffffffff1681526020015f6dffffffffffffffffffffffffffff1681526020015f61ffff1681526020015f60ff1681525090565b5f80fd5b5f73ffffffffffffffffffffffffffffffffffffffff82169050919050565b5f613f4b82613f22565b9050919050565b613f5b81613f41565b8114613f65575f80fd5b50565b5f81359050613f7681613f52565b92915050565b5f60208284031215613f9157613f90613f1e565b5b5f613f9e84828501613f68565b91505092915050565b5f819050919050565b613fb981613fa7565b8114613fc3575f80fd5b50565b5f81359050613fd481613fb0565b92915050565b5f805f60608486031215613ff157613ff0613f1e565b5b5f613ffe86828701613f68565b935050602061400f86828701613fc6565b925050604061402086828701613f68565b9150509250925092565b61403381613fa7565b82525050565b5f60208201905061404c5f83018461402a565b92915050565b5f806040838503121561406857614067613f1e565b5b5f61407585828601613f68565b925050602061408685828601613fc6565b9150509250929050565b5f6dffffffffffffffffffffffffffff82169050919050565b6140b281614090565b82525050565b5f61ffff82169050919050565b6140ce816140b8565b82525050565b5f60ff82169050919050565b6140e9816140d4565b82525050565b608082015f8201516141035f8501826140a9565b50602082015161411660208501826140a9565b50604082015161412960408501826140c5565b50606082015161413c60608501826140e0565b50505050565b5f60a0820190506141555f8301856140ef565b614162608083018461402a565b9392505050565b5f8115159050919050565b61417d81614169565b82525050565b5f6020820190506141965f830184614174565b92915050565b6141a581614169565b81146141af575f80fd5b50565b5f813590506141c08161419c565b92915050565b5f80604083850312156141dc576141db613f1e565b5b5f6141e985828601613f68565b92505060206141fa858286016141b2565b9150509250929050565b61420d816140b8565b82525050565b5f6020820190506142265f830184614204565b92915050565b5f6020828403121561424157614240613f1e565b5b5f61424e84828501613fc6565b91505092915050565b614260816140d4565b82525050565b5f6020820190506142795f830184614257565b92915050565b6004811061428b575f80fd5b50565b5f8135905061429c8161427f565b92915050565b5f80604083850312156142b8576142b7613f1e565b5b5f6142c585828601613f68565b92505060206142d68582860161428e565b9150509250929050565b5f819050919050565b5f6143036142fe6142f984613f22565b6142e0565b613f22565b9050919050565b5f614314826142e9565b9050919050565b5f6143258261430a565b9050919050565b6143358161431b565b82525050565b5f60208201905061434e5f83018461432c565b92915050565b5f806040838503121561436a57614369613f1e565b5b5f61437785828601613fc6565b925050602061438885828601613f68565b9150509250929050565b5f6fffffffffffffffffffffffffffffffff82169050919050565b6143b681614392565b82525050565b5f6040820190506143cf5f8301856143ad565b6143dc60208301846143ad565b9392505050565b6143ec81613f41565b82525050565b5f6020820190506144055f8301846143e3565b92915050565b61441481614090565b82525050565b5f60208201905061442d5f83018461440b565b92915050565b5f6080820190506144465f83018761440b565b614453602083018661440b565b6144606040830185614204565b61446d6060830184614257565b95945050505050565b5f806040838503121561448c5761448b613f1e565b5b5f61449985828601613f68565b92505060206144aa85828601613f68565b9150509250929050565b7f4e487b71000000000000000000000000000000000000000000000000000000005f52602160045260245ffd5b600481106144f2576144f16144b4565b5b50565b5f819050614502826144e1565b919050565b5f614511826144f5565b9050919050565b61452181614507565b82525050565b5f60208201905061453a5f830184614518565b92915050565b5f82825260208201905092915050565b7f21617574686f72697a65640000000000000000000000000000000000000000005f82015250565b5f614584600b83614540565b915061458f82614550565b602082019050919050565b5f6020820190508181035f8301526145b181614578565b9050919050565b5f815190506145c681613fb0565b92915050565b5f602082840312156145e1576145e0613f1e565b5b5f6145ee848285016145b8565b91505092915050565b7f4e487b71000000000000000000000000000000000000000000000000000000005f52601160045260245ffd5b5f61462e82613fa7565b915061463983613fa7565b9250828203905081811115614651576146506145f7565b5b92915050565b7f215065726d697373696f6e0000000000000000000000000000000000000000005f82015250565b5f61468b600b83614540565b915061469682614657565b602082019050919050565b5f6020820190508181035f8301526146b88161467f565b9050919050565b5f6146c982613fa7565b91506146d483613fa7565b92508282019050808211156146ec576146eb6145f7565b5b92915050565b5f6146fc82614090565b915061470783614090565b925082820190506dffffffffffffffffffffffffffff81111561472d5761472c6145f7565b5b92915050565b5f61473d82614090565b915061474883614090565b925082820261475681614090565b9150808214614768576147676145f7565b5b5092915050565b7f4e487b71000000000000000000000000000000000000000000000000000000005f52601260045260245ffd5b7f21617070726f7665645374616b657200000000000000000000000000000000005f82015250565b5f6147d0600f83614540565b91506147db8261479c565b602082019050919050565b5f6020820190508181035f8301526147fd816147c4565b9050919050565b7f696e76616c696420616d6f756e740000000000000000000000000000000000005f82015250565b5f614838600e83614540565b915061484382614804565b602082019050919050565b5f6020820190508181035f8301526148658161482c565b9050919050565b5f61487682613fa7565b915061488183613fa7565b925082820261488f81613fa7565b915082820484148315176148a6576148a56145f7565b5b5092915050565b5f6060820190506148c05f83018661402a565b6148cd602083018561402a565b6148da604083018461402a565b949350505050565b5f6040820190506148f55f8301856143e3565b614902602083018461402a565b9392505050565b5f61491382614392565b915061491e83614392565b925082820190506fffffffffffffffffffffffffffffffff811115614946576149456145f7565b5b92915050565b5f61495682614392565b915061496183614392565b925082820261496f81614392565b9150808214614981576149806145f7565b5b5092915050565b5f61499282614392565b915061499d83614392565b925082820390506fffffffffffffffffffffffffffffffff8111156149c5576149c46145f7565b5b92915050565b5f6149d582614090565b91506149e083614090565b925082820390506dffffffffffffffffffffffffffff811115614a0657614a056145f7565b5b92915050565b5f614a26614a21614a1c84614392565b6142e0565b613fa7565b9050919050565b614a3681614a0c565b82525050565b5f606082019050614a4f5f83018661402a565b614a5c602083018561402a565b614a696040830184614a2d565b949350505050565b7f737065636966696564207765656b206973206f6c646572207468616e206c61735f8201527f74207570646174652e0000000000000000000000000000000000000000000000602082015250565b5f614acb602983614540565b9150614ad682614a71565b604082019050919050565b5f6020820190508181035f830152614af881614abf565b9050919050565b5f606082019050614b125f8301866143e3565b614b1f60208301856143e3565b614b2c604083018461402a565b949350505050565b5f81519050614b428161419c565b92915050565b5f60208284031215614b5d57614b5c613f1e565b5b5f614b6a84828501614b34565b91505092915050565b7f5361666545524332303a204552433230206f7065726174696f6e20646964206e5f8201527f6f74207375636365656400000000000000000000000000000000000000000000602082015250565b5f614bcd602a83614540565b9150614bd882614b73565b604082019050919050565b5f6020820190508181035f830152614bfa81614bc1565b9050919050565b7f416464726573733a20696e73756666696369656e742062616c616e636520666f5f8201527f722063616c6c0000000000000000000000000000000000000000000000000000602082015250565b5f614c5b602683614540565b9150614c6682614c01565b604082019050919050565b5f6020820190508181035f830152614c8881614c4f565b9050919050565b5f81519050919050565b5f81905092915050565b5f5b83811015614cc0578082015181840152602081019050614ca5565b5f8484015250505050565b5f614cd582614c8f565b614cdf8185614c99565b9350614cef818560208601614ca3565b80840191505092915050565b5f614d068284614ccb565b915081905092915050565b7f416464726573733a2063616c6c20746f206e6f6e2d636f6e74726163740000005f82015250565b5f614d45601d83614540565b9150614d5082614d11565b602082019050919050565b5f6020820190508181035f830152614d7281614d39565b9050919050565b5f81519050919050565b5f601f19601f8301169050919050565b5f614d9d82614d79565b614da78185614540565b9350614db7818560208601614ca3565b614dc081614d83565b840191505092915050565b5f6020820190508181035f830152614de38184614d93565b90509291505056fea26469706673582212205fd571635054dd87f6d9fdadf2708d36fb27c6e8f25f14cf5f456f9266e75d0264736f6c63430008160033","linkReferences":{}},"methodIdentifiers":{"MAX_STAKE_GROWTH_WEEKS()":"29340501","MAX_WEEK_BIT()":"6f68fa1e","START_TIME()":"ddaa26ad","acceptOwnership()":"79ba5097","accountData(address)":"deb906e7","accountWeeklyMaxStake(address,uint256)":"510e995d","accountWeeklyToRealize(address,uint256)":"88ba63ba","approvedCaller(address,address)":"eecbc2ae","approvedWeightedStaker(address)":"143d7084","balanceOf(address)":"70a08231","checkpointAccount(address)":"9e94080e","checkpointAccountWithLimit(address,uint256)":"12cf9dad","checkpointGlobal()":"b48e9519","decimals()":"313ce567","getAccountWeight(address)":"3ea01b34","getAccountWeightAt(address,uint256)":"07f93a38","getGlobalWeight()":"802c4a0f","getGlobalWeightAt(uint256)":"4b3b140a","getWeek()":"874d6d81","globalGrowthRate()":"95255285","globalLastUpdateWeek()":"28f1ae51","globalWeeklyMaxStake(uint256)":"3011ef57","globalWeeklyToRealize(uint256)":"e399f29f","owner()":"8da5cb5b","pendingOwner()":"e30c3978","setApprovedCaller(address,uint8)":"49d1818d","setWeightedStaker(address,bool)":"231aed7c","stake(uint256)":"a694fc3a","stakeAsMaxWeighted(address,uint256)":"a4733df9","stakeFor(address,uint256)":"2ee40908","stakeToken()":"51ed6a30","sweep(address)":"01681a62","totalSupply()":"18160ddd","transferOwnership(address)":"f2fde38b","unstake(uint256,address)":"8381e182","unstakeFor(address,uint256,address)":"026800d0"},"id":33}