{"abi":[{"type":"constructor","inputs":[{"name":"owner","type":"address","internalType":"address"}],"stateMutability":"nonpayable"},{"type":"receive","stateMutability":"payable"},{"type":"function","name":"DOMAIN_SEPARATOR","inputs":[],"outputs":[{"name":"","type":"bytes32","internalType":"bytes32"}],"stateMutability":"view"},{"type":"function","name":"SELECT_SOLVER_TYPEHASH","inputs":[],"outputs":[{"name":"","type":"bytes32","internalType":"bytes32"}],"stateMutability":"view"},{"type":"function","name":"_destinationProtocolFees","inputs":[{"name":"","type":"bytes32","internalType":"bytes32"}],"outputs":[{"name":"","type":"uint256","internalType":"uint256"}],"stateMutability":"view"},{"type":"function","name":"_filled","inputs":[{"name":"","type":"bytes32","internalType":"bytes32"}],"outputs":[{"name":"","type":"address","internalType":"address"}],"stateMutability":"view"},{"type":"function","name":"_instances","inputs":[{"name":"","type":"bytes32","internalType":"bytes32"}],"outputs":[{"name":"","type":"address","internalType":"address"}],"stateMutability":"view"},{"type":"function","name":"_nonce","inputs":[],"outputs":[{"name":"","type":"uint256","internalType":"uint256"}],"stateMutability":"view"},{"type":"function","name":"_orders","inputs":[{"name":"","type":"bytes32","internalType":"bytes32"},{"name":"","type":"address","internalType":"address"}],"outputs":[{"name":"","type":"uint256","internalType":"uint256"}],"stateMutability":"view"},{"type":"function","name":"_owner","inputs":[],"outputs":[{"name":"","type":"address","internalType":"address"}],"stateMutability":"view"},{"type":"function","name":"_partialFills","inputs":[{"name":"","type":"bytes32","internalType":"bytes32"},{"name":"","type":"bytes32","internalType":"bytes32"}],"outputs":[{"name":"","type":"uint256","internalType":"uint256"}],"stateMutability":"view"},{"type":"function","name":"_paused","inputs":[],"outputs":[{"name":"","type":"bool","internalType":"bool"}],"stateMutability":"view"},{"type":"function","name":"calculateCommitmentSlotHash","inputs":[{"name":"commitment","type":"bytes32","internalType":"bytes32"}],"outputs":[{"name":"","type":"bytes","internalType":"bytes"}],"stateMutability":"pure"},{"type":"function","name":"cancelOrder","inputs":[{"name":"order","type":"tuple","internalType":"struct Order","components":[{"name":"user","type":"bytes32","internalType":"bytes32"},{"name":"source","type":"bytes","internalType":"bytes"},{"name":"destination","type":"bytes","internalType":"bytes"},{"name":"deadline","type":"uint256","internalType":"uint256"},{"name":"nonce","type":"uint256","internalType":"uint256"},{"name":"fees","type":"uint256","internalType":"uint256"},{"name":"session","type":"address","internalType":"address"},{"name":"predispatch","type":"tuple","internalType":"struct DispatchInfo","components":[{"name":"assets","type":"tuple[]","internalType":"struct TokenInfo[]","components":[{"name":"token","type":"bytes32","internalType":"bytes32"},{"name":"amount","type":"uint256","internalType":"uint256"}]},{"name":"call","type":"bytes","internalType":"bytes"}]},{"name":"inputs","type":"tuple[]","internalType":"struct TokenInfo[]","components":[{"name":"token","type":"bytes32","internalType":"bytes32"},{"name":"amount","type":"uint256","internalType":"uint256"}]},{"name":"output","type":"tuple","internalType":"struct PaymentInfo","components":[{"name":"beneficiary","type":"bytes32","internalType":"bytes32"},{"name":"assets","type":"tuple[]","internalType":"struct TokenInfo[]","components":[{"name":"token","type":"bytes32","internalType":"bytes32"},{"name":"amount","type":"uint256","internalType":"uint256"}]},{"name":"call","type":"bytes","internalType":"bytes"}]}]},{"name":"options","type":"tuple","internalType":"struct CancelOptions","components":[{"name":"relayerFee","type":"uint256","internalType":"uint256"},{"name":"height","type":"uint64","internalType":"uint64"}]}],"outputs":[],"stateMutability":"payable"},{"type":"function","name":"eip712Domain","inputs":[],"outputs":[{"name":"fields","type":"bytes1","internalType":"bytes1"},{"name":"name","type":"string","internalType":"string"},{"name":"version","type":"string","internalType":"string"},{"name":"chainId","type":"uint256","internalType":"uint256"},{"name":"verifyingContract","type":"address","internalType":"address"},{"name":"salt","type":"bytes32","internalType":"bytes32"},{"name":"extensions","type":"uint256[]","internalType":"uint256[]"}],"stateMutability":"view"},{"type":"function","name":"fillOrder","inputs":[{"name":"order","type":"tuple","internalType":"struct Order","components":[{"name":"user","type":"bytes32","internalType":"bytes32"},{"name":"source","type":"bytes","internalType":"bytes"},{"name":"destination","type":"bytes","internalType":"bytes"},{"name":"deadline","type":"uint256","internalType":"uint256"},{"name":"nonce","type":"uint256","internalType":"uint256"},{"name":"fees","type":"uint256","internalType":"uint256"},{"name":"session","type":"address","internalType":"address"},{"name":"predispatch","type":"tuple","internalType":"struct DispatchInfo","components":[{"name":"assets","type":"tuple[]","internalType":"struct TokenInfo[]","components":[{"name":"token","type":"bytes32","internalType":"bytes32"},{"name":"amount","type":"uint256","internalType":"uint256"}]},{"name":"call","type":"bytes","internalType":"bytes"}]},{"name":"inputs","type":"tuple[]","internalType":"struct TokenInfo[]","components":[{"name":"token","type":"bytes32","internalType":"bytes32"},{"name":"amount","type":"uint256","internalType":"uint256"}]},{"name":"output","type":"tuple","internalType":"struct PaymentInfo","components":[{"name":"beneficiary","type":"bytes32","internalType":"bytes32"},{"name":"assets","type":"tuple[]","internalType":"struct TokenInfo[]","components":[{"name":"token","type":"bytes32","internalType":"bytes32"},{"name":"amount","type":"uint256","internalType":"uint256"}]},{"name":"call","type":"bytes","internalType":"bytes"}]}]},{"name":"options","type":"tuple","internalType":"struct FillOptions","components":[{"name":"relayerFee","type":"uint256","internalType":"uint256"},{"name":"nativeDispatchFee","type":"uint256","internalType":"uint256"},{"name":"outputs","type":"tuple[]","internalType":"struct TokenInfo[]","components":[{"name":"token","type":"bytes32","internalType":"bytes32"},{"name":"amount","type":"uint256","internalType":"uint256"}]}]}],"outputs":[],"stateMutability":"payable"},{"type":"function","name":"host","inputs":[],"outputs":[{"name":"","type":"address","internalType":"address"}],"stateMutability":"view"},{"type":"function","name":"initialize","inputs":[{"name":"p","type":"tuple","internalType":"struct Params","components":[{"name":"host","type":"address","internalType":"address"},{"name":"dispatcher","type":"address","internalType":"address"},{"name":"solverSelection","type":"bool","internalType":"bool"},{"name":"surplusShareBps","type":"uint256","internalType":"uint256"},{"name":"protocolFeeBps","type":"uint256","internalType":"uint256"},{"name":"priceOracle","type":"address","internalType":"address"}]},{"name":"peerChains","type":"bytes[]","internalType":"bytes[]"}],"outputs":[],"stateMutability":"nonpayable"},{"type":"function","name":"instance","inputs":[{"name":"stateMachineId","type":"bytes","internalType":"bytes"}],"outputs":[{"name":"","type":"address","internalType":"address"}],"stateMutability":"view"},{"type":"function","name":"onAccept","inputs":[{"name":"incoming","type":"tuple","internalType":"struct IncomingPostRequest","components":[{"name":"request","type":"tuple","internalType":"struct PostRequest","components":[{"name":"source","type":"bytes","internalType":"bytes"},{"name":"dest","type":"bytes","internalType":"bytes"},{"name":"nonce","type":"uint64","internalType":"uint64"},{"name":"from","type":"bytes","internalType":"bytes"},{"name":"to","type":"bytes","internalType":"bytes"},{"name":"timeoutTimestamp","type":"uint64","internalType":"uint64"},{"name":"body","type":"bytes","internalType":"bytes"}]},{"name":"relayer","type":"address","internalType":"address"}]}],"outputs":[],"stateMutability":"nonpayable"},{"type":"function","name":"onGetResponse","inputs":[{"name":"incoming","type":"tuple","internalType":"struct IncomingGetResponse","components":[{"name":"response","type":"tuple","internalType":"struct GetResponse","components":[{"name":"request","type":"tuple","internalType":"struct GetRequest","components":[{"name":"source","type":"bytes","internalType":"bytes"},{"name":"dest","type":"bytes","internalType":"bytes"},{"name":"nonce","type":"uint64","internalType":"uint64"},{"name":"from","type":"bytes","internalType":"bytes"},{"name":"timeoutTimestamp","type":"uint64","internalType":"uint64"},{"name":"keys","type":"bytes[]","internalType":"bytes[]"},{"name":"height","type":"uint64","internalType":"uint64"},{"name":"context","type":"bytes","internalType":"bytes"}]},{"name":"values","type":"tuple[]","internalType":"struct StorageValue[]","components":[{"name":"key","type":"bytes","internalType":"bytes"},{"name":"value","type":"bytes","internalType":"bytes"}]}]},{"name":"relayer","type":"address","internalType":"address"}]}],"outputs":[],"stateMutability":"nonpayable"},{"type":"function","name":"onGetTimeout","inputs":[{"name":"","type":"tuple","internalType":"struct GetRequestTimeout","components":[{"name":"request","type":"tuple","internalType":"struct GetRequest","components":[{"name":"source","type":"bytes","internalType":"bytes"},{"name":"dest","type":"bytes","internalType":"bytes"},{"name":"nonce","type":"uint64","internalType":"uint64"},{"name":"from","type":"bytes","internalType":"bytes"},{"name":"timeoutTimestamp","type":"uint64","internalType":"uint64"},{"name":"keys","type":"bytes[]","internalType":"bytes[]"},{"name":"height","type":"uint64","internalType":"uint64"},{"name":"context","type":"bytes","internalType":"bytes"}]},{"name":"relayer","type":"address","internalType":"address"}]}],"outputs":[],"stateMutability":"nonpayable"},{"type":"function","name":"onPostRequestTimeout","inputs":[{"name":"","type":"tuple","internalType":"struct PostRequestTimeout","components":[{"name":"request","type":"tuple","internalType":"struct PostRequest","components":[{"name":"source","type":"bytes","internalType":"bytes"},{"name":"dest","type":"bytes","internalType":"bytes"},{"name":"nonce","type":"uint64","internalType":"uint64"},{"name":"from","type":"bytes","internalType":"bytes"},{"name":"to","type":"bytes","internalType":"bytes"},{"name":"timeoutTimestamp","type":"uint64","internalType":"uint64"},{"name":"body","type":"bytes","internalType":"bytes"}]},{"name":"relayer","type":"address","internalType":"address"}]}],"outputs":[],"stateMutability":"nonpayable"},{"type":"function","name":"params","inputs":[],"outputs":[{"name":"","type":"tuple","internalType":"struct Params","components":[{"name":"host","type":"address","internalType":"address"},{"name":"dispatcher","type":"address","internalType":"address"},{"name":"solverSelection","type":"bool","internalType":"bool"},{"name":"surplusShareBps","type":"uint256","internalType":"uint256"},{"name":"protocolFeeBps","type":"uint256","internalType":"uint256"},{"name":"priceOracle","type":"address","internalType":"address"}]}],"stateMutability":"view"},{"type":"function","name":"placeOrder","inputs":[{"name":"order","type":"tuple","internalType":"struct Order","components":[{"name":"user","type":"bytes32","internalType":"bytes32"},{"name":"source","type":"bytes","internalType":"bytes"},{"name":"destination","type":"bytes","internalType":"bytes"},{"name":"deadline","type":"uint256","internalType":"uint256"},{"name":"nonce","type":"uint256","internalType":"uint256"},{"name":"fees","type":"uint256","internalType":"uint256"},{"name":"session","type":"address","internalType":"address"},{"name":"predispatch","type":"tuple","internalType":"struct DispatchInfo","components":[{"name":"assets","type":"tuple[]","internalType":"struct TokenInfo[]","components":[{"name":"token","type":"bytes32","internalType":"bytes32"},{"name":"amount","type":"uint256","internalType":"uint256"}]},{"name":"call","type":"bytes","internalType":"bytes"}]},{"name":"inputs","type":"tuple[]","internalType":"struct TokenInfo[]","components":[{"name":"token","type":"bytes32","internalType":"bytes32"},{"name":"amount","type":"uint256","internalType":"uint256"}]},{"name":"output","type":"tuple","internalType":"struct PaymentInfo","components":[{"name":"beneficiary","type":"bytes32","internalType":"bytes32"},{"name":"assets","type":"tuple[]","internalType":"struct TokenInfo[]","components":[{"name":"token","type":"bytes32","internalType":"bytes32"},{"name":"amount","type":"uint256","internalType":"uint256"}]},{"name":"call","type":"bytes","internalType":"bytes"}]}]},{"name":"graffiti","type":"bytes32","internalType":"bytes32"}],"outputs":[],"stateMutability":"payable"},{"type":"function","name":"quote","inputs":[{"name":"request","type":"tuple","internalType":"struct DispatchPost","components":[{"name":"dest","type":"bytes","internalType":"bytes"},{"name":"to","type":"bytes","internalType":"bytes"},{"name":"body","type":"bytes","internalType":"bytes"},{"name":"timeout","type":"uint64","internalType":"uint64"},{"name":"fee","type":"uint256","internalType":"uint256"},{"name":"payer","type":"address","internalType":"address"}]}],"outputs":[{"name":"","type":"uint256","internalType":"uint256"}],"stateMutability":"nonpayable"},{"type":"function","name":"quote","inputs":[{"name":"request","type":"tuple","internalType":"struct DispatchGet","components":[{"name":"dest","type":"bytes","internalType":"bytes"},{"name":"height","type":"uint64","internalType":"uint64"},{"name":"keys","type":"bytes[]","internalType":"bytes[]"},{"name":"timeout","type":"uint64","internalType":"uint64"},{"name":"fee","type":"uint256","internalType":"uint256"},{"name":"context","type":"bytes","internalType":"bytes"},{"name":"payer","type":"address","internalType":"address"}]}],"outputs":[{"name":"","type":"uint256","internalType":"uint256"}],"stateMutability":"nonpayable"},{"type":"function","name":"select","inputs":[{"name":"options","type":"tuple","internalType":"struct SelectOptions","components":[{"name":"commitment","type":"bytes32","internalType":"bytes32"},{"name":"solver","type":"address","internalType":"address"},{"name":"signature","type":"bytes","internalType":"bytes"}]}],"outputs":[{"name":"","type":"address","internalType":"address"}],"stateMutability":"nonpayable"},{"type":"event","name":"DeploymentAdded","inputs":[{"name":"chain","type":"string","indexed":false,"internalType":"string"},{"name":"gateway","type":"address","indexed":false,"internalType":"address"}],"anonymous":false},{"type":"event","name":"DestinationProtocolFeeUpdated","inputs":[{"name":"chain","type":"string","indexed":false,"internalType":"string"},{"name":"feeBps","type":"uint256","indexed":false,"internalType":"uint256"}],"anonymous":false},{"type":"event","name":"DustCollected","inputs":[{"name":"token","type":"address","indexed":false,"internalType":"address"},{"name":"amount","type":"uint256","indexed":false,"internalType":"uint256"}],"anonymous":false},{"type":"event","name":"DustSwept","inputs":[{"name":"token","type":"address","indexed":false,"internalType":"address"},{"name":"amount","type":"uint256","indexed":false,"internalType":"uint256"},{"name":"beneficiary","type":"address","indexed":false,"internalType":"address"}],"anonymous":false},{"type":"event","name":"EIP712DomainChanged","inputs":[],"anonymous":false},{"type":"event","name":"EscrowRefunded","inputs":[{"name":"commitment","type":"bytes32","indexed":true,"internalType":"bytes32"},{"name":"tokens","type":"tuple[]","indexed":false,"internalType":"struct TokenInfo[]","components":[{"name":"token","type":"bytes32","internalType":"bytes32"},{"name":"amount","type":"uint256","internalType":"uint256"}]}],"anonymous":false},{"type":"event","name":"EscrowReleased","inputs":[{"name":"commitment","type":"bytes32","indexed":true,"internalType":"bytes32"},{"name":"tokens","type":"tuple[]","indexed":false,"internalType":"struct TokenInfo[]","components":[{"name":"token","type":"bytes32","internalType":"bytes32"},{"name":"amount","type":"uint256","internalType":"uint256"}]}],"anonymous":false},{"type":"event","name":"Initialized","inputs":[{"name":"version","type":"uint64","indexed":false,"internalType":"uint64"}],"anonymous":false},{"type":"event","name":"OrderFilled","inputs":[{"name":"commitment","type":"bytes32","indexed":true,"internalType":"bytes32"},{"name":"filler","type":"address","indexed":false,"internalType":"address"},{"name":"outputs","type":"tuple[]","indexed":false,"internalType":"struct TokenInfo[]","components":[{"name":"token","type":"bytes32","internalType":"bytes32"},{"name":"amount","type":"uint256","internalType":"uint256"}]},{"name":"inputs","type":"tuple[]","indexed":false,"internalType":"struct TokenInfo[]","components":[{"name":"token","type":"bytes32","internalType":"bytes32"},{"name":"amount","type":"uint256","internalType":"uint256"}]}],"anonymous":false},{"type":"event","name":"OrderPlaced","inputs":[{"name":"user","type":"bytes32","indexed":false,"internalType":"bytes32"},{"name":"source","type":"string","indexed":false,"internalType":"string"},{"name":"destination","type":"string","indexed":false,"internalType":"string"},{"name":"deadline","type":"uint256","indexed":false,"internalType":"uint256"},{"name":"nonce","type":"uint256","indexed":false,"internalType":"uint256"},{"name":"fees","type":"uint256","indexed":false,"internalType":"uint256"},{"name":"session","type":"address","indexed":false,"internalType":"address"},{"name":"beneficiary","type":"bytes32","indexed":false,"internalType":"bytes32"},{"name":"predispatch","type":"tuple[]","indexed":false,"internalType":"struct TokenInfo[]","components":[{"name":"token","type":"bytes32","internalType":"bytes32"},{"name":"amount","type":"uint256","internalType":"uint256"}]},{"name":"inputs","type":"tuple[]","indexed":false,"internalType":"struct TokenInfo[]","components":[{"name":"token","type":"bytes32","internalType":"bytes32"},{"name":"amount","type":"uint256","internalType":"uint256"}]},{"name":"outputs","type":"tuple[]","indexed":false,"internalType":"struct TokenInfo[]","components":[{"name":"token","type":"bytes32","internalType":"bytes32"},{"name":"amount","type":"uint256","internalType":"uint256"}]}],"anonymous":false},{"type":"event","name":"ParamsUpdated","inputs":[{"name":"previous","type":"tuple","indexed":false,"internalType":"struct Params","components":[{"name":"host","type":"address","internalType":"address"},{"name":"dispatcher","type":"address","internalType":"address"},{"name":"solverSelection","type":"bool","internalType":"bool"},{"name":"surplusShareBps","type":"uint256","internalType":"uint256"},{"name":"protocolFeeBps","type":"uint256","internalType":"uint256"},{"name":"priceOracle","type":"address","internalType":"address"}]},{"name":"current","type":"tuple","indexed":false,"internalType":"struct Params","components":[{"name":"host","type":"address","internalType":"address"},{"name":"dispatcher","type":"address","internalType":"address"},{"name":"solverSelection","type":"bool","internalType":"bool"},{"name":"surplusShareBps","type":"uint256","internalType":"uint256"},{"name":"protocolFeeBps","type":"uint256","internalType":"uint256"},{"name":"priceOracle","type":"address","internalType":"address"}]}],"anonymous":false},{"type":"event","name":"PartialFill","inputs":[{"name":"commitment","type":"bytes32","indexed":true,"internalType":"bytes32"},{"name":"filler","type":"address","indexed":false,"internalType":"address"},{"name":"outputs","type":"tuple[]","indexed":false,"internalType":"struct TokenInfo[]","components":[{"name":"token","type":"bytes32","internalType":"bytes32"},{"name":"amount","type":"uint256","internalType":"uint256"}]},{"name":"inputs","type":"tuple[]","indexed":false,"internalType":"struct TokenInfo[]","components":[{"name":"token","type":"bytes32","internalType":"bytes32"},{"name":"amount","type":"uint256","internalType":"uint256"}]}],"anonymous":false},{"type":"event","name":"Upgraded","inputs":[{"name":"implementation","type":"address","indexed":true,"internalType":"address"}],"anonymous":false},{"type":"error","name":"AddressEmptyCode","inputs":[{"name":"target","type":"address","internalType":"address"}]},{"type":"error","name":"Cancelled","inputs":[]},{"type":"error","name":"ECDSAInvalidSignature","inputs":[]},{"type":"error","name":"ECDSAInvalidSignatureLength","inputs":[{"name":"length","type":"uint256","internalType":"uint256"}]},{"type":"error","name":"ECDSAInvalidSignatureS","inputs":[{"name":"s","type":"bytes32","internalType":"bytes32"}]},{"type":"error","name":"ERC1967InvalidImplementation","inputs":[{"name":"implementation","type":"address","internalType":"address"}]},{"type":"error","name":"ERC1967NonPayable","inputs":[]},{"type":"error","name":"Expired","inputs":[]},{"type":"error","name":"FailedCall","inputs":[]},{"type":"error","name":"Filled","inputs":[]},{"type":"error","name":"InsufficientNativeToken","inputs":[]},{"type":"error","name":"InvalidInitialization","inputs":[]},{"type":"error","name":"InvalidInput","inputs":[]},{"type":"error","name":"InvalidShortString","inputs":[]},{"type":"error","name":"NotExpired","inputs":[]},{"type":"error","name":"NotInitializing","inputs":[]},{"type":"error","name":"PartialFillNotAllowed","inputs":[]},{"type":"error","name":"ReentrancyGuardReentrantCall","inputs":[]},{"type":"error","name":"SafeERC20FailedOperation","inputs":[{"name":"token","type":"address","internalType":"address"}]},{"type":"error","name":"StringTooLong","inputs":[{"name":"str","type":"string","internalType":"string"}]},{"type":"error","name":"Unauthorized","inputs":[]},{"type":"error","name":"UnauthorizedCall","inputs":[]},{"type":"error","name":"UnexpectedCall","inputs":[]},{"type":"error","name":"UnknownInstance","inputs":[]},{"type":"error","name":"UnknownOrder","inputs":[]},{"type":"error","name":"WrongChain","inputs":[]}],"bytecode":{"object":"0x6101803462000239576001600160401b0390601f6200629e38819003918201601f1916830192919084841183851017620002255781602092849260409687528339810103126200023957516001600160a01b03811681036200023957815162000068816200023d565b600d815260208101926c496e74656e744761746577617960981b845280519462000092866200023d565b6001865260208601601960f91b8152620000ac8462000259565b95610120968752620000be8862000423565b94610140958652519020968760e052519020610100968188524660a05283519160208301917f8b73c3c69bb8fe3d512ecc4cf759cc79239f7b179b0ffacaa9a75d522b39400f83528584015260608301524660808301523060a083015260a0825260c08201918083108484111762000225578285525190206080523060c0526101609485527ff0c57e16840df040f15088dc2f81fe391c3923bec73e23a9662efc9c229c6a009182549160ff83861c166200021657508080831603620001d1575b5050505192615cd39485620005cb863960805185614f62015260a0518561501d015260c05185614f2c015260e05185614fb101525184614fd701525183611fd501525182611fff01525181610d170152f35b6001600160401b0319909116811790915581519081527fc7f505b2f371ae2175ee4913f4499e1f2633a7b5936321eed1cdaeb6115181d290602090a15f80806200017f565b63f92ee8a960e01b8152600490fd5b634e487b7160e01b5f52604160045260245ffd5b5f80fd5b604081019081106001600160401b038211176200022557604052565b805160209081811015620002f35750601f8251116200029457808251920151908083106200028657501790565b825f19910360031b1b161790565b90604051809263305a27a960e01b82528060048301528251908160248401525f935b828510620002d9575050604492505f838284010152601f80199101168101030190fd5b8481018201518686016044015293810193859350620002b6565b906001600160401b03821162000225575f54926001938481811c9116801562000418575b838210146200040457601f8111620003ce575b5081601f84116001146200036857509282939183925f946200035c575b50501b915f199060031b1c1916175f5560ff90565b015192505f8062000347565b919083601f1981165f8052845f20945f905b88838310620003b357505050106200039a575b505050811b015f5560ff90565b01515f1960f88460031b161c191690555f80806200038d565b8587015188559096019594850194879350908101906200037a565b5f805284601f845f20920160051c820191601f860160051c015b828110620003f85750506200032a565b5f8155018590620003e8565b634e487b7160e01b5f52602260045260245ffd5b90607f169062000317565b805160209081811015620004af5750601f8251116200045057808251920151908083106200028657501790565b90604051809263305a27a960e01b82528060048301528251908160248401525f935b82851062000495575050604492505f838284010152601f80199101168101030190fd5b848101820151868601604401529381019385935062000472565b9192916001600160401b038111620002255760019182548381811c91168015620005bf575b828210146200040457601f811162000589575b5080601f8311600114620005255750819293945f9262000519575b50505f19600383901b1c191690821b17905560ff90565b015190505f8062000502565b90601f19831695845f52825f20925f905b88821062000571575050838596971062000558575b505050811b01905560ff90565b01515f1960f88460031b161c191690555f80806200054b565b80878596829496860151815501950193019062000536565b835f5283601f835f20920160051c820191601f850160051c015b828110620005b3575050620004e7565b5f8155018490620005a3565b90607f1690620004d456fe6080604052600436101561001a575b3615610018575f80fd5b005b5f803560e01c80630bddd96c146134ce5780630fee32ce146134a5578063108bc1dd146133d157806316c61ccc146133af5780633644e5151461339557806350b9ac3a146132415780635cfb1ea5146123785780635d1222aa1461235a57806360121a941461232257806367418a1a146122335780636d20e7dc146121125780637c865d2a146120df57806380b0b687146120b557806384b0196e14611fbb57806391a7e4b914611d2b578063958b00ed14610d46578063b2bdfa7b14610d01578063c3694a8314610c2a578063cff0ab9614610b92578063dff78f6e14610b5f578063e1b32f7c14610b24578063f095ca8c14610af0578063f437bc5914610ac7578063f6df919c14610318578063f87238f3146101945763fc27935e14610143575061000e565b34610191576040366003190112610191576024356001600160a01b038116919082900361018d576040906004358152600960205220905f52602052602060405f2054604051908152f35b5f80fd5b80fd5b5034610191576003199060203683011261019157600435906001600160401b039283831161030c57604081843603011261030c57604051936101d585613581565b83600401358181116103145760e090850192833603011261031057604051926101fd846135ca565b600483013582811161030c57610219906004369186010161368d565b8452602483013582811161030c57610237906004369186010161368d565b6020850152610248604484016136ab565b6040850152606483013582811161030c57610269906004369186010161368d565b6060850152608483013582811161030c5761028a906004369186010161368d565b608085015261029b60a484016136ab565b60a085015260c48301359182116101915750926102d3926102c660249360046020973692010161368d565b60c08201528552016136bf565b9101526004546001600160a01b031633036102fa576040516302cbc79f60e01b8152600490fd5b604051637bf6a16f60e01b8152600490fd5b5080fd5b8280fd5b8380fd5b506003196060368201811361031057600435916001600160401b03808411610ac35761014084600401928536030112610ac3576040366023190112610ac35761035f615043565b60405160209485820182610373868361479b565b0392610387601f199485810183528261361b565b51902080885260028752604088205490956001600160a01b039390918416610ab1578360045416946040518a8160048163f437bc5960e01b9a8b82525afa908115610aa6578b91610a8c575b508981519101209260248501936103f46103ed868b613897565b3691613657565b8b8151910120604487019161040c6103ed848d613897565b8051908e0120918083036105b257505050505050508435933385036105a1578884600454169160046040518094819382525afa90811561059657610463916103ed918b91610574575b508981519101209287613897565b8781519101200361056257610104019261047d8482614930565b91905061048982614bee565b948893895b8481106104e4575050505050156104d2576104bf93604051936104b08561359c565b84528301526040820152614cb5565b805f80516020615c7e8339815191525d80f35b604051635c1c6f4b60e11b8152600490fd5b816104f9826104f38688614930565b9061506f565b3516898c5260098b5260408c20905f528a5260405f205480610559575b90600191610528826104f38789614930565b35906040519161053783613581565b82528c820152610547828b614484565b52610552818a614484565b500161048e565b60019650610516565b6040516310dfc03360e01b8152600490fd5b61059091503d808d833e610588818361361b565b81019061392b565b5f610455565b6040513d8b823e3d90fd5b6040516282b42960e81b8152600490fd5b908092939794999a509d9c9b97949a959d145f146108fa575050508135903382036105a1576105df61527c565b886064830135911611156108e857610104016105fb8184614930565b90508a5b8181106108b6575050916106638a9b8a610644610657999795610628839f9e9d9c9a9887614930565b9091604051946106378661359c565b8a865285015236916137af565b60408201526040519889918c830161508c565b0390810188528761361b565b6040519261067084613581565b60018452895b8981106108a3575091816106e06107008b8d9897966106a161069b8761071999613897565b90614c74565b6106cd60405192848401926001600160601b0319908d1b168352601484526106c884613581565b61516d565b9060405195869351809286860190613769565b82016106f482518093868085019101613769565b0103808452018261361b565b61070985614467565b5261071384614467565b50613897565b969061073461072661527c565b91604051996103ed8b6135ca565b8852168787015260408601528401526080830191602435835260a084015260c08301913383528160045416923415155f146107d75750505061078b93506040518080958194625d54e760e21b835260048301615292565b039134905af180156107cc576107a3575b50506104bf565b813d83116107c5575b6107b6818361361b565b8101031261018d575f8061079c565b503d6107ac565b6040513d85823e3d90fd5b60405163647846a560e01b81529295509093918781600481875afa90811561089857889661083c966108219487938b95610867575b50518216308103610851575b50519216615a70565b604051948580948193625d54e760e21b835260048301615292565b03925af180156107cc576107a35750506104bf565b8151610861913090878616615224565b5f610818565b8391955061088a908b3d8d11610891575b610882818361361b565b810190614448565b949061080c565b503d610878565b6040513d89823e3d90fd5b8481018a018690528c9a508b9901610676565b868c5260098b5260408c20896108d0836104f3878a614930565b35165f528b5260405f2054156104d2576001016105ff565b60405163d0404f8560e01b8152600490fd5b91999a9b9395945091969750145f1461056257878995874360648301351015610a73575b936109a16109cc946109806021958b610964610104610995988d9c60406109bc9f35958b815260028852209085166001600160601b0360a01b825416179055018b614930565b919092604051976109748961359c565b885287015236916137af565b60408401528c6040519485918201948561508c565b0390810184528361361b565b604051958692600160fa1b8d85015251809285850190613769565b810103600181018552018361361b565b610a1b6109e761069b6109df8985613897565b999094613897565b60405190851b6bffffffffffffffffffffffff1916898201526014815291610a0e83613581565b604051976103ed89613566565b865286860152604085015283015260243560808301523360a0830152600454163415610a625761078b918391604051808095819463b8f3e8f560e01b8352600483016150b8565b50610a6d91506156cc565b506104bf565b509550509190338235036105a15790918789958761091e565b610aa091503d808d833e610588818361361b565b5f6103d3565b6040513d8d823e3d90fd5b60405163413e917360e11b8152600490fd5b8480fd5b50346101915780600319360112610191576004546040516001600160a01b039091168152602090f35b50346101915760403660031901126101915760406020916004358152600b8352818120602435825283522054604051908152f35b503461019157806003193601126101915760206040517f4e7a964fde3ec316fdcf2e27971047ec3048eaa33a854c4c0b363e05c61b68d08152f35b5034610191576020366003190112610191576020906004358152600a8252604060018060a01b0391205416604051908152f35b503461019157806003193601126101915760a0604051610bb181613566565b828152826020820152826040820152826060820152826080820152015260c0604051610bdc81613566565b60018060a01b038060045416825260ff600554828116602085015260a01c1615156040830152600654606083015260075460808301526008541660a0820152610c28604051809261383d565bf35b503461019157610c3936613535565b6004546001600160a01b031633036102fa57610c558180614c5f565b602081013590601e198136030182121561031457018035906001600160401b03821161031457602001908060051b360382136103145715610ced57610c9d81610ca792614c5f565b6020810190613897565b9050610ab15780610cb791614c5f565b803560fe198236030181121561031057610cdd610ce591610cea930160e0810190613897565b8101906138c9565b614cb5565b80f35b634e487b7160e01b83526032600452602483fd5b50346101915780600319360112610191576040517f00000000000000000000000000000000000000000000000000000000000000006001600160a01b03168152602090f35b506040366003190112610191576001600160401b036004351161019157610140600435360360031901126101915760405161014081018181106001600160401b03821117611d1757604052600435600401358152602460043501356001600160401b03811161031057610dc090600436918135010161368d565b6020820152604460043501356001600160401b03811161031057610deb90600436918135010161368d565b6040820152600435606481013560608301526084810135608083015260a481013560a0830152610e1d9060c4016136bf565b60c082015260e460043501356001600160401b0381116103105760406004358201360360031901126103105760405190610e5682613581565b60048181350101356001600160401b038111610ac357610e7f9060043691848235010101613822565b82526001600160401b036024826004350101351161031457610eb0903690600480359091016024810135010161368d565b602082015260e08201526001600160401b0361010460043501351161030c57610ee436600480356101048101350101613822565b61010082015261012460043501356001600160401b0381116103105760606004358201360360031901126103105760405190610f1f8261359c565b600480358201908101358352602401356001600160401b038111610ac357610f509060043691848235010101613822565b60208301526001600160401b036044826004350101351161031457610f84903690600480359091016044810135010161368d565b6040820152610120820152610f97615043565b61010081015151156115f0576020610120820151015151825b818110611ce35750825b818110611cc357505060018060a01b03600454169033815260405163f437bc5960e01b81528381600481865afa9081156114bf578491611ca9575b50602082015260035461100781614965565b600355608082015261010081015151349060e083015160208101515115159081611c9d575b5015611b065760018060a01b036005541660e08401515151865b818110611a8057505085602060e08601510151823b1561030c5781611087916040518093819263156fffe360e31b835260206004840152602483019061378a565b038183875af1801561185857611a6c575b506110a2836149c3565b916110ac846136d3565b926110ba604051948561361b565b8484526110c6856136d3565b601f1901366020860137825b8581106118635750906110ff6110f19260405193849160208301614a27565b03601f19810184528361361b565b803b156103105760405163156fffe360e31b815260206004820152918391839182908490829061113390602483019061378a565b03925af1801561185857611840575b5050855b82811061170e5750505b6040830151602081519101208552600c6020526040852054938415611704575b8585156116d95792919061118382614bee565b95845b8381106116025750508561010086015260405160208101906111ba816111ac8985614aec565b03601f19810183528261361b565b519020915b84905b80821061158657505060a0850151611305575b5050806112d7575b50508051906020810151926040820151916060810151608082015160a0830151600160a01b6001900360c0850151169060e0850151519461012001519283519360200151976040519a8b9a610160908c528060208d01528b0161123f9161378a565b8a810360408c01526112509161378a565b9460608a0152608089015260a088015260c087015260e086015284810361010086015261127c91614aae565b83810361012085015261128e91614aae565b8281036101408401526112a091614aae565b037f34509e625ac0d72654af70cb0b2d47eb5236c1370cf0d7ad459828d4d3a5cf1d91a1805f80516020615c7e8339815191525d80f35b81808092335af16112e6614994565b50156112f357825f6111dd565b6040516332201f6960e11b8152600490fd5b909160405163647846a560e01b8152602081600481865afa908115611537578591611567575b5081156115425750604051630b4a282f60e11b815291602083600481845afa928315611537578593611516575b506040516315ab88c960e31b8152906020826004816001600160a01b0388165afa9081156114e95760049287926114f4575b506020906040519261139b8461359c565b60028452604036848601376113af84614467565b6001600160a01b03909116905260405163647846a560e01b815293849182905afa9384156114e95761142894879384916114ca575b506113ee83614474565b9060018060a01b0316905260a08801518460405180978195829463fb3bdb4160e01b84526004840152608060248401526084830190614511565b30604483015242606483015203926001600160a01b03165af19182156114bf576114649261145d91869161149d575b50614467565b5190614987565b905b60a084015190835260096020526040832073d254fdaa2ce7841c7794b71b85f15052f5aeac825f5260205260405f20555f806111d5565b6114b991503d8088833e6114b1818361361b565b810190614498565b5f611457565b6040513d86823e3d90fd5b6114e3915060203d60201161089157610882818361361b565b5f6113e4565b6040513d88823e3d90fd5b602091925061150f90823d841161089157610882818361361b565b919061138a565b61153091935060203d60201161089157610882818361361b565b915f611358565b6040513d87823e3d90fd5b60a0860151919392506115629190309033906001600160a01b0316615224565b611466565b611580915060203d60201161089157610882818361361b565b5f61132b565b90945060018060a01b0361159f86610100890151614484565b515116838952600960205260408920815f5260205260405f20546115f0578560019160206115ce8c998c614484565b51015190868952600960205260408920905f5260205260405f205501906111c2565b60405163b4fa3fb360e01b8152600490fd5b909192939450602061161982610100890151614484565b5101519081156115f0578161163e61271061163686600196614c4c565b048092614987565b90838060a01b03611654846101008c0151614484565b51511690806116a8575b505061166f826101008a0151614484565b5151906040519161167f83613581565b82526020820152611690828a614484565b5261169b8189614484565b5001908794939291611186565b604080516001600160a01b0393909316835260208301919091525f80516020615c5e83398151915291a15f8061165e565b92919094506101008401519460405160208101906116fb816111ac8985614aec565b519020916111bf565b6007549450611170565b6101008501516001600160a01b0390611728908390614484565b51511690816117c8576001916117424761145d8487614484565b905b6020611755846101008b0151614484565b5101518211156117ae5761178b5f80516020615c5e833981519152926020611782866101008d0151614484565b51015190614987565b604080516001600160a01b03939093168352602083019190915290a15b01611146565b5060206117c0836101008a0151614484565b5101526117a8565b6040516370a0823160e01b815230600482015291602083602481845afa92831561059657899361180a575b5061180460019361145d8487614484565b90611744565b92506020833d602011611838575b816118256020938361361b565b8101031261018d579151916118046117f3565b3d9150611818565b611849906135b7565b61185457855f611142565b8580fd5b6040513d84823e3d90fd5b909192506020611878826101008a0151614484565b510151156115f0576101008701516001600160a01b039061189a908390614484565b5151169060206118af826101008b0151614484565b510151918061191a575083319182106112f3576040516001926118d18261359c565b30825260208201526040516118e581613600565b8b815260408201526118f78285614484565b526119028184614484565b504761190e8287614484565b525b01908892916110d2565b6040516370a0823160e01b8152600481018690529092602082602481875afa918215611a61578c92611a2d575b5081106115f05760405163a9059cbb60e01b60208281019190915230602483810191909152604483019390935291939061198481606481016111ac565b604051906119918261359c565b8282528d8483015260408201526119a88487614484565b526119b38386614484565b506040516370a0823160e01b815230600482015293849182905afa8015611a22578a906119ef575b600192506119e98287614484565b52611910565b506020823d602011611a1a575b81611a096020938361361b565b8101031261018d57600191516119db565b3d91506119fc565b6040513d8c823e3d90fd5b9091506020813d602011611a59575b81611a496020938361361b565b8101031261018d5751905f611947565b3d9150611a3c565b6040513d8e823e3d90fd5b611a75906135b7565b61185457855f611098565b60e0860151516001600160a01b0390611a9a908390614484565b515116946020611aaf8360e08a015151614484565b5101519586156115f05780611af057508086116112f357888080611ad4898295614987565b98875af1611ae0614994565b50156112f3576001905b01611046565b600192919685611b01923390615224565b611aea565b845b818110611b155750611150565b916020611b2784610100870151614484565b510151156115f0576101008401516001600160a01b0390611b49908590614484565b51511680611b8b57506020611b6384610100870151614484565b51015181106112f357611b83600191602061178286610100890151614484565b925b01611b08565b6040516370a0823160e01b8152306004820152919390602083602481845afa928315611c5d578893611c68575b506020602491611bdc82611bd1866101008c0151614484565b510151303384615224565b6040516370a0823160e01b815230600482015292839182905afa908115611c5d578891611c2a575b50600192611c1191614987565b6020611c2283610100890151614484565b510152611b85565b90506020813d602011611c55575b81611c456020938361361b565b8101031261018d57516001611c04565b3d9150611c38565b6040513d8a823e3d90fd5b9092506020813d602011611c95575b81611c846020938361361b565b8101031261018d5751916020611bb8565b3d9150611c77565b9050515115155f61102c565b611cbd91503d8086833e610588818361361b565b5f610ff5565b8084611cda60019360206101208801510151614484565b51515d01610fba565b611cf68160206101208601510151614484565b515190815c611d0a57600180925d01610fb0565b63b4fa3fb385526004601cfd5b634e487b7160e01b5f52604160045260245ffd5b503461019157366003190160e0811261030c5760c01361018d5760405190611d5282613566565b6001600160a01b03600435818116810361018d57835260243592818416840361018d5760209160208201948552604435801515810361018d57604083019081526060830160643581526080840190608435825260a43592848416840361018d5760a086019384526001600160401b039560c435878111611fb757611dda9036906004016136ea565b977ff0c57e16840df040f15088dc2f81fe391c3923bec73e23a9662efc9c229c6a009889549160ff8360401c161599831692831580611fb0575b60018095149081611fa6575b159081611f9d575b50611f8b5767ffffffffffffffff1981166001178c558a611f6c575b508151918c5b838110611f3d57505050505085611ef79798999a611e8e8284611e6f611ead966151a4565b511660018060a01b03166001600160601b0360a01b6004541617600455565b511660018060a01b03166001600160601b0360a01b6005541617600555565b516005805460ff60a01b191691151560a01b60ff60a01b16919091179055516006555160075551600880546001600160a01b0319166001600160a01b039390921692909216179055565b611eff575080f35b68ff00000000000000001981541690557fc7f505b2f371ae2175ee4913f4499e1f2633a7b5936321eed1cdaeb6115181d2602060405160018152a180f35b80611f66611f4c879385614484565b5160405190611f5a82613581565b81523086820152614eaa565b01611e4a565b68ffffffffffffffffff191668010000000000000001178b555f611e44565b60405163f92ee8a960e01b8152600490fd5b9050155f611e28565b303b159150611e20565b508a611e14565b8980fd5b503461019157806003193601126101915761205890611ff97f00000000000000000000000000000000000000000000000000000000000000006157c1565b906120237f00000000000000000000000000000000000000000000000000000000000000006158e2565b906040519161203183613600565b818352612066602091604051968796600f60f81b885260e0602089015260e088019061378a565b90868203604088015261378a565b904660608601523060808601528260a086015284820360c0860152602080855193848152019401925b82811061209e57505050500390f35b83518552869550938101939281019260010161208f565b50346101915760203660031901126101915760406020916004358152600c83522054604051908152f35b503461019157602036600319011261019157602090600435815260028252604060018060a01b0391205416604051908152f35b5034610191576003199060203683011261019157600435906001600160401b038211610191576060826004019383360301126101915760206121f58480356121fa602487016121ec886121e66103ed61216a85614907565b97604460426040518d8101907f4e7a964fde3ec316fdcf2e27971047ec3048eaa33a854c4c0b363e05c61b68d082528b604082015260018060a01b03809d166060820152606081526121bb816135e5565b5190206121c6614f29565b906040519161190160f01b83526002830152602282015220940190613897565b90615b32565b90969196615b6c565b614907565b604080516001600160a01b0392831687820190815292861660208401529061222590829084016111ac565b519020905d60405191168152f35b50346101915760031960203682011261030c57600435906001600160401b03908183116103145760e09083360301126103105760405192612273846135ca565b826004013582811161030c5761228f906004369186010161368d565b845261229d602484016136ab565b6020850152604483013582811161030c576122be90600436918601016136ea565b60408501526122cf606484016136ab565b60608501526084830135608085015260a483013591821161019157602061231a8561231060c4876123053689830160040161368d565b60a0850152016136bf565b60c082015261454d565b604051908152f35b50346101915760203660031901126101915761235661234260043561516d565b60405191829160208352602083019061378a565b0390f35b50346101915780600319360112610191576020600354604051908152f35b50604036600319011261018d576004356001600160401b0380821161018d57610140600319833603011261018d576024351161018d5760606024353603600319011261018d576123c6615043565b4360648201351061322f5760405160208101906123ea816111ac856004018561479b565b5190206004805460405163f437bc5960e01b8152915f9183919082906001600160a01b03165afa90811561271e575f91613215575b506020815191012061243a6103ed6024850185600401613897565b60208151910120816124556103ed6044870187600401613897565b6020815191012091828114938491829561320a575b505061056257821591826131ff575b5050610562575f828152600260205260409020546001600160a01b0316610ab15760ff60055460a01c166131ad575b6124c66124bc61012485018560040161491b565b6020810190614930565b8091506124dd604460243501602435600401614930565b9050036115f0576124f5610104850185600401614930565b9050036115f05715612d39576125156124bc61012484018460040161491b565b5f83815260026020526040902080546001600160a01b031916331790553491506001600160a01b0361254e61012486016004870161491b565b351660019061255c83614bee565b9161256684614bee565b915f905b8582106129a857505061259161258761012489018960040161491b565b6040810190613897565b90501515806129a0575b61298e576040516125ab8161359c565b8681523360208201528184604083015261296c575b9081604088969594930151515f5b8181106128a35750508161279c575b5015612745576126117fdd5ba16ce7d9636800f5875b2a5572176a96f47947d3218b2a2ac4c5cc11f9bf93886004016153ac565b6126216040519283923384615137565b0390a25b80612729575b505b6008546001600160a01b03169182612654575b83805f80516020615c7e8339815191525d80f35b612679926126686024830183600401613897565b949092610104810190600401614930565b612690604460249793973501602435600401614930565b959096843b1561018d576126d3975f976126e56126f7938a966040519c8d9b8c9a8b99635dd9242760e01b8b5260048b0152608060248b015260848a0191614709565b8781036003190160448901529161475d565b8481036003190160648601529161475d565b03925af1801561271e5761270d575b8080612640565b61271791506135b7565b5f80612706565b6040513d5f823e3d90fd5b5f80808093335af1612739614994565b50156112f3575f61262b565b7fa71fc5b4fbaf5f5f0846475fec0d0c1d6c93100f2326ddb75c117244f45bbe859250835f52600260205260405f206001600160601b0360a01b81541690556127946040519283923384615137565b0390a2612625565b80515f52600960205260405f2073d254fdaa2ce7841c7794b71b85f15052f5aeac8290815f5260205260405f2054908161281b575b50507f1c1f5b2e9173d11729cff59e7b4113dbc84cbb3f662fee1896e2d89e97f1236c61281260408351930151604051918291602083526020830190614aae565b0390a25f6125dd565b90965081515f52600960205260405f20905f526020525f60408120556004602060018060a01b038254166040519283809263647846a560e01b82525afa96871561271e57899761287d925f91612884575b5033906001600160a01b031661536e565b5f806127d1565b61289d915060203d60201161089157610882818361361b565b5f61286c565b909192939495965060018060a01b036128c0826040860151614484565b51511660206128d3836040870151614484565b5101519081156129625784515f52600960205260405f20815f5260205260405f205480156104d2578261290591614987565b85515f52600960205260405f20825f5260205260405f205580155f1461294e57505f80808093335af1612936614994565b50156112f3576001905b0190889695949392916125ce565b6001929161295d91339061536e565b612940565b5050600190612940565b5f87815260026020526040902080546001600160a01b031916331790556125c0565b6040516323bc005f60e21b8152600490fd5b50801561259b565b90956129c2876104f36124bc6101248d018d60040161491b565b3596876129dd826104f3604460243501602435600401614930565b35036115f05789976020612a08836104f36129ff6101248e0160048f0161491b565b84810190614930565b0135928a6020612a26856104f3604460243501602435600401614930565b013591815f52600b60205260405f20845f5260205260405f205492612a4b8488614987565b90811580159081612d31575b612d0157509087949392918e5f925f90871580612cf8575b15612cd2575050612a96612587612a87898a95614987565b9261012481019060040161491b565b159050612ca757612aca9291612aac919661507f565b935f52600b60205260405f20875f526020528360405f20558561507f565b9c6001600160a01b038616612c6d5750612ae4838e61507f565b81106112f3575f80808f8194612afd88612b039361507f565b90614987565b9f8b5af1612b0f614994565b50156112f3578d915b818711612c65575b90818792612c37575b5003612be85750600193508a5f5260096020528b83612b66612b5760405f2093610104810190600401614930565b888060a09593951b039361506f565b35165f526020528b612b8a846104f360405f2054935b610104810190600401614930565b359060405191612b9983613581565b82526020820152612baa848a614484565b52612bb58389614484565b5060405191612bc383613581565b82526020820152612bd48287614484565b52612bdf8186614484565b505b019061256a565b816020612c04866104f385610104612c0b970190600401614930565b0135614c4c565b938015612c235760019404612b8a846104f38f612b7c565b634e487b7160e01b5f52601260045260245ffd5b604080516001600160a01b038816815260208101929092525f80516020615c5e83398151915291a15f612b29565b5f9850612b20565b909c909290612c879089336001600160a01b038916615224565b8015612b1857612ca28130336001600160a01b038916615224565b612b18565b9490612aca9250612aac90612ccc612710612cc46006548a614c4c565b048098614987565b9261507f565b96975095612aca9392612aac925081811115612cf157505b809761507f565b9050612cea565b50888411612a6f565b9697509450509a505050159081612d29575b50612d21575b600190612be1565b5f9250612d19565b90505f612d13565b508115612a57565b612d4d6124bc61012484018460040161491b565b5f83815260026020526040902080546001600160a01b031916331790559050346001600160a01b03612d8661012486016004870161491b565b351691612d9281614bee565b925f905b828210612fdf57505090612db1612e279392866004016153ac565b60018060a01b0360045416612e376021612df4612dd56101048a018a600401614930565b919060405192612de48461359c565b8a845233602085015236916137af565b604082015260405190612e0f826110f160208201938461508c565b6040519788925f602085015251809285850190613769565b810103600181018752018561361b565b612e476024870187600401613897565b9490612e84612e5f61069b60248b018b600401613897565b91604051926001600160601b03199060601b16602084015260148352610a0e83613581565b8652602086015260408501525f60608501526024356004013560808501523360a0850152602480350135938585151580612fd5575b15612fc35750612ee485939260209260405197888094819363b8f3e8f560e01b8352600483016150b8565b03925af193841561271e578594612f92575b5090612f0191614987565b80612f71575b50612f5b7fdd5ba16ce7d9636800f5875b2a5572176a96f47947d3218b2a2ac4c5cc11f9bf91612f69612f41610104880188600401614930565b604051948594338652606060208701526060860190614aae565b91848303604086015261475d565b0390a261262d565b5f80809394508092335af1612f84614994565b50156112f35781905f612f07565b602080929395503d8311612fbc575b612fab818361361b565b8101031261018d579183925f612ef6565b503d612fa1565b9450612fcf91506156cc565b50612f01565b5085841015612eb9565b9092612ff9846104f36124bc6101248b018b60040161491b565b359384613014826104f3604460243501602435600401614930565b35036115f0576020613034826104f36129ff6101248d018d60040161491b565b0135946020613051836104f3604460243501602435600401614930565b0135958087106115f0576130658188614987565b5f97889180613164575b506001600160a01b0384166131255785106112f35761308e908261507f565b5f808080848a5af161309e614994565b50156112f357600194612afd896130b49361507f565b965b806130ee575b50604051916130ca83613581565b825260208201526130db8288614484565b526130e68187614484565b500190612d96565b6040805160a087901b87900385166001600160a01b0316815260208101929092525f80516020615c5e83398151915291a15f6130bc565b5096613146613137600196998461507f565b8733888060a01b038716615224565b80156130b65761315f813033888060a01b038716615224565b6130b6565b90985061317b6125876101248e0160048f0161491b565b15905061318a57975b5f61306f565b9790506131a761271061319f6006548b614c4c565b048099614987565b90613184565b815c6131bb60c48501614907565b6040805133602082019081526001600160a01b03909316918101919091526131e681606081016111ac565b519020146124a8576040516282b42960e81b8152600490fd5b141590505f80612479565b14159050815f61246a565b61322991503d805f833e610588818361361b565b5f61241f565b604051630407b05b60e31b8152600490fd5b3461018d5760031960203682011261018d57600435906001600160401b0380831161018d57604082843603011261018d576040519261327f84613581565b806004013582811161018d578101906101008094833603011261018d5760405193840184811084821117611d1757604052600482013583811161018d576132cc906004369185010161368d565b8452602482013583811161018d576132ea906004369185010161368d565b60208501526132fb604483016136ab565b6040850152606482013583811161018d5761331c906004369185010161368d565b606085015261332d608483016136ab565b608085015260a482013583811161018d5761334e90600436918501016136ea565b60a085015261335f60c483016136ab565b60c085015260e482013592831161018d5760209361338860249360046102d3963692010161368d565b60e08201528552016136bf565b3461018d575f36600319011261018d57602061231a614f29565b3461018d575f36600319011261018d57602060ff600d54166040519015158152f35b3461018d5760031960203682011261018d57600435906001600160401b039081831161018d5760c090833603011261018d5760405161340f81613566565b826004013582811161018d5761342b906004369186010161368d565b8152602483013582811161018d57613449906004369186010161368d565b6020820152604483013591821161018d5761349b60a460209461347561231a956004369184010161368d565b6040850152613486606482016136ab565b606085015260848101356080850152016136bf565b60a082015261454d565b3461018d576134b336613535565b6004546001600160a01b031633036102fa5761001890613989565b3461018d57602036600319011261018d576001600160401b0360043581811161018d573660238201121561018d57806004013591821161018d57366024838301011161018d5760209160246135239201614c74565b6040516001600160a01b039091168152f35b6003199060208183011261018d57600435916001600160401b03831161018d578260409203011261018d5760040190565b60c081019081106001600160401b03821117611d1757604052565b604081019081106001600160401b03821117611d1757604052565b606081019081106001600160401b03821117611d1757604052565b6001600160401b038111611d1757604052565b60e081019081106001600160401b03821117611d1757604052565b608081019081106001600160401b03821117611d1757604052565b602081019081106001600160401b03821117611d1757604052565b90601f801991011681019081106001600160401b03821117611d1757604052565b6001600160401b038111611d1757601f01601f191660200190565b9291926136638261363c565b91613671604051938461361b565b82948184528183011161018d578281602093845f960137010152565b9080601f8301121561018d578160206136a893359101613657565b90565b35906001600160401b038216820361018d57565b35906001600160a01b038216820361018d57565b6001600160401b038111611d175760051b60200190565b81601f8201121561018d57803591602091613704846136d3565b93613712604051958661361b565b808552838086019160051b8301019280841161018d57848301915b84831061373d5750505050505090565b82356001600160401b03811161018d57869161375e8484809489010161368d565b81520192019161372d565b5f5b83811061377a5750505f910152565b818101518382015260200161376b565b906020916137a381518092818552858086019101613769565b601f01601f1916010190565b9291926137bb826136d3565b6040926137cb604051928361361b565b819581835260208093019160061b84019381851161018d57915b8483106137f457505050505050565b858383031261018d57838691825161380b81613581565b8535815282860135838201528152019201916137e5565b9080601f8301121561018d578160206136a8933591016137af565b60a09081600180821b03918281511685528260208201511660208601526040810151151560408601526060810151606086015260808101516080860152015116910152565b90359060de198136030182121561018d570190565b903590601e198136030182121561018d57018035906001600160401b03821161018d5760200191813603831361018d57565b9060208282031261018d5781356001600160401b039283821161018d57019060608282031261018d57604051926138ff8461359c565b8235845260208301356020850152604083013590811161018d576139239201613822565b604082015290565b60208183031261018d578051906001600160401b03821161018d570181601f8201121561018d57805161395d8161363c565b9261396b604051948561361b565b8184526020828401011161018d576136a89160208085019101613769565b6139938180613882565b6139a260c09182810190613897565b15614434573560f81c9160068310156143fc575f9183158015614427575b61411f576139da6103ed6139d48480613882565b80613897565b9182516020809401209360018060a01b036004918183541696835f6040998a5192838092622f3b1f60e11b82525afa908115614115575f916140fb575b50878151910120036140ec576140d957600196808803613ac55750505090613a4282613a4b93613882565b90810190613897565b808592951161018d578401905f19938385878503011261018d576001600160401b03958083013587811161018d5782910195868503011261018d575193613a9185613581565b8181013595861161018d57613ab2613aba93602193613ac39884010161368d565b8552016136bf565b90820152614eaa565b565b91969395949392909160028103613e425750613ae481613aed92613882565b86810190613897565b80841161018d578101955f19968588848303011261018d57848301356001600160401b039384821161018d570197888203019260e0841261018d5782885194613b3586613581565b1261018d57875191613b4683613566565b613b51878b016136bf565b8352602199613b62602182016136bf565b898501526041936041820135801515810361018d578b8201526061820135606082015260818201356080820152613b9b60a183016136bf565b60a0820152865260c18101359083821161018d57019281898501121561018d578784013591613bc9836136d3565b9b8b519c613bd7908e61361b565b838d528a8d019360051b86016021019582871161018d5790818f98979695949392602101945b878610613dd7575050505050505050917f4982e71fefe4860e03e33de7f184bff279249ad110df0bbb9343a0afae5fc8d261018060a093613c8d613d2697968a86019c8d52613c4c86516151a4565b85518c51935489168452600554808a168d860152881c60ff161515848e0152600654606085015260075460808501526008548916888501529083019061383d565ba151613cb38382511660018060a01b03166001600160601b0360a01b6004541617600455565b613cd983878301511660018060a01b03166001600160601b0360a01b6005541617600555565b8681015115156005549060ff841b90841b169060ff841b1916176005556060810151600655608081015160075501511660018060a01b03166001600160601b0360a01b6008541617600855565b805f915b613d37575b505050505050565b84518051831015613dd157613d4d838592614484565b510151613d5b838751614484565b515192612710841015613dc157613db482847facb1f6024e7afa58df3e25b77798453a1ac2b64cdc782aaa40352daa9528b2bb93819551898401205f52600c8952878a5f2055019588519283928a84528a84019061378a565b90888301520390a1613d2a565b855163b4fa3fb360e01b81528890fd5b50613d2f565b9091929394809697989950359087821161018d578e91830191602019838703011261018d578e5190613e0882613581565b848301358252868301359189831161018d578f9387878695613e2b93010161368d565b838201528152019501939291908f98979695613bfd565b92969395919260038103613faa575090613a4282613e5f93613882565b80871161018d578101905f19918683838303011261018d576001600160401b03918089013583811161018d5787910193848303011261018d57855192613ea484613581565b613eaf8982016136bf565b8452602181013592831161018d57613ec992018801613822565b958582019680885251965f975b808910613ee857505050505050505050565b613ef3898351614484565b518886825116910151998a8583155f14613f7257505f808080938b8b51165af1613f1b614994565b5015613f62577fde823c50fa89d3540e0b34e00b7cd53b92df6cb2bc5db4d0d77773bac4ba21fd91856060925b019b88885116908b519283528c8301528a820152a1613ed6565b88516332201f6960e11b81528890fd5b606092613fa57fde823c50fa89d3540e0b34e00b7cd53b92df6cb2bc5db4d0d77773bac4ba21fd95938b8b51168561536e565b613f48565b9496929594909190600514613fc3575b50505050505050565b613a4282613fd093613882565b808392931161018d57820190865f19848403011261018d578083013595861680960361018d5760218301356001600160401b03811161018d5761401493010161368d565b93833b156140c3577f360894a13ba1a3210667c828492db98dca3e2076cc3735a920a3ca505d382bbc80546001600160a01b0319168517905551837fbc7cd75a20ee27fd9adebab32041f755214dbc6bffa90cc0225b39da2e5c2d3b5f80a28451156140a65750505f83819261409895519101845af4614092614994565b91615a0d565b505b5f808080808080613fba565b9250925050346140b757505061409a565b63b398979f60e01b8152fd5b51634c9c8ce360e01b8152908101839052602490fd5b602182634e487b7160e01b5f525260245ffd5b86516282b42960e81b81528390fd5b61410f91503d805f833e610588818361361b565b5f613a17565b89513d5f823e3d90fd5b9061412a8180613882565b9160608301601461413b8286613897565b9050036115f05761414c9084613897565b6bffffffffffffffffffffffff19913582811695929160148110614410575b5050508061417891613897565b6001600160a01b039460601c91859161419091614c74565b16036105a157613a42826141a393613882565b600192918160011161018d5760016141be92820191016138c9565b926143fc5760049360209180838601511685515f5260028452604094855f20826001600160601b0360a01b82541617905585870197885151905f5b828110614334575050505085515f5260098452845f209173d254fdaa2ce7841c7794b71b85f15052f5aeac8292835f528552855f205492836142b6575b5050505060040361427e576142797f45f5e47d095ee4ce478510c53aa58ef27c8e41eaf0d8969a8b3e34c10b4aea22935194519251928284938452830190614aae565b0390a2565b6142797f1c1f5b2e9173d11729cff59e7b4113dbc84cbb3f662fee1896e2d89e97f1236c935194519251928284938452830190614aae565b87515f5260098652865f20905f5285525f868120556004858282541688519283809263647846a560e01b82525afa90811561432a5791614304939160049695935f9161430d575b501661536e565b905f8080614236565b6143249150883d8a1161089157610882818361361b565b5f6142fd565b87513d5f823e3d90fd5b8a886143508389614346828651614484565b5151169351614484565b510151908582156143f357508b515f526009808b528b5f20825f528b528b5f205480156143e357918d8992614386868b96614987565b91515f528d528d5f20825f528d528d5f205580155f146143d157505f809381935081925af16143b3614994565b50156143c25783905b016141f9565b5087516332201f6960e11b8152fd5b906143de9294939161536e565b6143bc565b8c51635c1c6f4b60e11b81528690fd5b929150506143bc565b634e487b7160e01b5f52602160045260245ffd5b60140360031b82901b161693506141785f8061416b565b505f9250600484146139c0565b634e487b7160e01b5f52603260045260245ffd5b9081602091031261018d57516001600160a01b038116810361018d5790565b8051156144345760200190565b8051600110156144345760400190565b80518210156144345760209160051b010190565b602090818184031261018d578051906001600160401b03821161018d57019180601f8401121561018d5782516144cd816136d3565b936144db604051958661361b565b818552838086019260051b82010192831161018d578301905b828210614502575050505090565b815181529083019083016144f4565b9081518082526020808093019301915f5b828110614530575050505090565b83516001600160a01b031685529381019392810192600101614522565b9060018060a01b038060045416604093845190630b4a282f60e11b825260208083600481875afa92831561432a575f936146b9575b50848751936145908561359c565b60028552883684870137169187516315ab88c960e31b81528281600481875afa9586156141155760049684925f9161469c575b50886145ce88614467565b91169052895163647846a560e01b815296879182905afa801561469257614634965f966080948893614673575b505061460686614474565b9116905201518387518096819582946307c0329d60e21b845260048401528a60248401526044830190614511565b03925af1908115614669576146519293505f916146555750614467565b5190565b6114b991503d805f833e6114b1818361361b565b83513d5f823e3d90fd5b61468a929350803d1061089157610882818361361b565b905f806145fb565b88513d5f823e3d90fd5b6146b39150833d851161089157610882818361361b565b5f6145c3565b816146d19294503d851161089157610882818361361b565b915f614582565b9035601e198236030181121561018d5701602081359101916001600160401b03821161018d57813603831361018d57565b908060209392818452848401375f828201840152601f01601f1916010190565b9035601e198236030181121561018d5701602081359101916001600160401b03821161018d578160061b3603831361018d57565b9190808252602080920192915f905b82821061477a575050505090565b8335855283810135858201526040948501949093019260019091019061476c565b60208082528235818301526147b2818401846146d8565b90936147ce610140956040938785880152610160870191614709565b936147f26147de848401846146d8565b601f19848903810160608601529791614709565b9360608301356080830152608083013560a083015260a083013560c083015260018060a01b0361482460c085016136bf565b1660e083015260e08301359183360392603e19840181121561018d5761489561488c866148a89301610100998b868203018b87015261487f6148756148698480614729565b8d85528d85019161475d565b92888101906146d8565b9188818503910152614709565b97860186614729565b61012098918a858403018a86015261475d565b9584013592605e190183121561018d576136a8976148f9946148ef940197828803019101528535855260606148df82880188614729565b919092870152606086019161475d565b93828101906146d8565b929091818503910152614709565b356001600160a01b038116810361018d5790565b903590605e198136030182121561018d570190565b903590601e198136030182121561018d57018035906001600160401b03821161018d57602001918160061b3603831361018d57565b5f1981146149735760010190565b634e487b7160e01b5f52601160045260245ffd5b9190820391821161497357565b3d156149be573d906149a58261363c565b916149b3604051938461361b565b82523d5f602084013e565b606090565b906149cd826136d3565b6040906149dd604051918261361b565b83815280936149ee601f19916136d3565b01915f5b8381106149ff5750505050565b6020908251614a0d8161359c565b5f8152825f818301526060858301528286010152016149f2565b6020808201908083528351809252604092604081018260408560051b8401019601945f925b858410614a5d575050505050505090565b909192939495968580614a9d600193603f198682030188528b5187606091878060a01b03815116845285810151868501520151918189820152019061378a565b990194019401929594939190614a4c565b9081518082526020808093019301915f5b828110614acd575050505090565b8351805186528201518583015260409094019392810192600101614abf565b614b1f6136a8926020808452815181850152614bdf8183015191610140956040958694888684015261016083019061378a565b96614b3b8587015198601f19998a85830301606086015261378a565b60608701516080840152608087015160a084015260a087015160c084015260018060a01b0360c08801511660e0840152614bbc614ba560e0890151610100938c878203018588015287614b9583518c84528c840190614aae565b920151908881840391015261378a565b9188015191610120928b8683030184870152614aae565b960151978287030191015285518452606081870151918501526060840190614aae565b9301519181840391015261378a565b90614bf8826136d3565b604090614c08604051918261361b565b8381528093614c19601f19916136d3565b01915f5b838110614c2a5750505050565b6020908251614c3881613581565b5f8152825f81830152828601015201614c1d565b8181029291811591840414171561497357565b903590603e198136030182121561018d570190565b614c7f913691613657565b602081519101205f52600a60205260018060a01b0360405f2054168015614ca35790565b60405163080f0f2360e31b8152600490fd5b60018060a01b0360208181840151169280515f5260028252604092835f20856001600160601b0360a01b825416179055838201948551515f5b818110614de257505082515f5260098452845f209173d254fdaa2ce7841c7794b71b85f15052f5aeac8292835f528552855f20549283614d67575b50505050906142797f45f5e47d095ee4ce478510c53aa58ef27c8e41eaf0d8969a8b3e34c10b4aea2293925194519251928284938452830190614aae565b84515f5260098652865f20905f5285525f868120556004858282541688519283809263647846a560e01b82525afa90811561432a5792614dd89261427995927f45f5e47d095ee4ce478510c53aa58ef27c8e41eaf0d8969a8b3e34c10b4aea22999897955f9161430d57501661536e565b9192935f80614d29565b83614dee828a51614484565b51511686614dfd838b51614484565b510151908115614ea05786515f526009808952895f20825f528952895f20548015614e8f5790614e2f84889493614987565b9089515f528a528a5f20825f528a528a5f205580155f14614e7c57505f80809381935af1614e5b614994565b5015614e6b576001905b01614cee565b86516332201f6960e11b8152600490fd5b91614e8a916001949361536e565b614e65565b8a51635c1c6f4b60e11b8152600490fd5b5050600190614e65565b614f1e7fef3a977591780cb6ff376668aa152e8535d22d1cb737c52e2d6afe1eb9a7148f91602081019060018060a01b0390818351168151602081519101205f52600a60205260405f20906001600160601b0360a01b8254161790555191511660405192839260408452604084019061378a565b9060208301520390a1565b307f00000000000000000000000000000000000000000000000000000000000000006001600160a01b0316148061501a575b15614f84577f000000000000000000000000000000000000000000000000000000000000000090565b60405160208101907f8b73c3c69bb8fe3d512ecc4cf759cc79239f7b179b0ffacaa9a75d522b39400f82527f000000000000000000000000000000000000000000000000000000000000000060408201527f000000000000000000000000000000000000000000000000000000000000000060608201524660808201523060a082015260a0815261501481613566565b51902090565b507f00000000000000000000000000000000000000000000000000000000000000004614614f5b565b5f80516020615c7e833981519152805c61505d576001905d565b604051633ee5aeb560e01b8152600490fd5b91908110156144345760061b0190565b9190820180921161497357565b608060406136a89360208452805160208501526020810151828501520151916060808201520190614aae565b6020815260c06151076150d6845183602086015260e085019061378a565b6150f2602086015191601f19928387830301604088015261378a565b9060408601519085830301606086015261378a565b926001600160401b036060820151166080840152608081015160a084015260a0600180821b039101511691015290565b6001600160a01b0390911681526060602082018190526136a893919261515f91840190614aae565b916040818403910152614aae565b60405160208101918252600260408201526040815261518b8161359c565b519020604051906020820152602081526136a881613581565b80516001600160a01b0391908216801590811561521a575b506115f057816020820151168015908115615210575b506115f057612710806060830151116115f057608082015110156115f05760a00151168015159081615206575b506115f057565b90503b155f6151ff565b90503b155f6151d2565b90503b155f6151bc565b6040516323b872dd60e01b60208201526001600160a01b03928316602482015292909116604483015260648083019390935291815260a08101918183106001600160401b03841117611d1757613ac3926040526159b3565b6044356001600160401b038116810361018d5790565b60208082526152ad835160e08385015261010084019061378a565b90808401516001600160401b038091166040850152604085015192601f1992838683030160608701528451908183528083019281808460051b8301019701935f915b848310615342575050505050509161532d9160e0936060870151166080860152608086015160a086015260a0860151908583030160c086015261378a565b60c0909301516001600160a01b031691015290565b909192939497848061535e838b86600196030187528c5161378a565b9a019301930191949392906152ef565b60405163a9059cbb60e01b60208201526001600160a01b0390921660248301526044820192909252613ac3916153a782606481016110f1565b6159b3565b6153bd61258761012083018361491b565b5f939150156156c7576005546001600160a01b0316916153e461258761012083018361491b565b843b1561018d5760405163156fffe360e31b815260206004820152915f918391829161541591602484019190614709565b038183885af1801561271e576156b4575b50615430826149c3565b918491855b8281106154fd575050508061544b575b50505050565b615454816149c3565b91845b8281106154d3575050506154776111ac9160405192839160208301614a27565b813b15610310576154a98392839260405194858094819363156fffe360e31b835260206004840152602483019061378a565b03925af18015611858576154bf575b8080615445565b6154c982916135b7565b61019157806154b8565b806154e060019284614484565b516154eb8287614484565b526154f68186614484565b5001615457565b806155216155126124bc61012086018661491b565b6001600160a01b03939161506f565b3516806155ba5786318061553c575b50506001905b01615435565b5f80516020615c5e83398151915290615597600194939760405161555f8161359c565b30815283602082015260405161557481613600565b8d81526040820152615586828c614484565b52615591818b614484565b50614965565b604080516001600160a01b03999099168952602089019290925296a1905f615530565b6040516370a0823160e01b815260048101889052602081602481855afa908115610596578991615682575b50806155f6575b5050600190615536565b60405163a9059cbb60e01b6020820152306024820152604481018290529195600193925f80516020615c5e833981519152929161565f9161563a81606481016111ac565b604051906156478261359c565b8a82528d60208301526040820152615586828c614484565b604080516001600160a01b03999099168952602089019290925296a1905f6155ec565b90506020813d6020116156ac575b8161569d6020938361361b565b8101031261018d57515f6155e5565b3d9150615690565b6156bf9194506135b7565b5f925f615426565b505050565b6004805460405163647846a560e01b81526020936001600160a01b039390928416908590839081845afa92831561271e5761572d8694835f976157499689936157a2575b508060a086015116308103615789575b5060808501519216615a70565b60405194858094819363b8f3e8f560e01b8352600483016150b8565b03925af191821561271e575f9261575f57505090565b90809250813d8311615782575b615776818361361b565b8101031261018d575190565b503d61576c565b608086015161579c913090868516615224565b5f615720565b6157ba919350883d8a1161089157610882818361361b565b915f615710565b60ff81146157ff5760ff811690601f82116157ed57604051916157e383613581565b8252602082015290565b604051632cd44ac360e21b8152600490fd5b506040515f8054906001908260011c600184169283156158d8575b60209485831085146158c45782875286949081156158a45750600114615849575b50506136a89250038261361b565b5f8080527f290decd9548b62a8d60345a988386fc84ba6bc95484008f6362f93160ef3e56395935091905b81831061588c5750506136a893508201015f8061583b565b85548784018501529485019486945091830191615874565b9150506136a894925060ff191682840152151560051b8201015f8061583b565b634e487b7160e01b5f52602260045260245ffd5b90607f169061581a565b60ff81146159045760ff811690601f82116157ed57604051916157e383613581565b506040515f60018054918260011c600184169283156159a9575b60209485831085146158c45782875286949081156158a4575060011461594c5750506136a89250038261361b565b9093915060015f527fb10e2d527612073b26eecdfd717e6a320cf44b4afac2b0732d9fcbe2b7fa0cf6935f915b8183106159915750506136a893508201015f8061583b565b85548784018501529485019486945091830191615979565b90607f169061591e565b905f602091828151910182855af11561271e575f513d615a0457506001600160a01b0381163b155b6159e25750565b604051635274afe760e01b81526001600160a01b039091166004820152602490fd5b600114156159db565b90615a345750805115615a2257805190602001fd5b60405163d6bda27560e01b8152600490fd5b81511580615a67575b615a45575090565b604051639996b31560e01b81526001600160a01b039091166004820152602490fd5b50803b15615a3d565b60405163095ea7b360e01b60208083018281526001600160a01b038616602485015260448085019790975295835290949193915f90615ab060648761361b565b85519082865af15f513d82615b0d575b505015615acd5750505050565b615b04936153a79160405191602083015260018060a01b031660248201525f604482015260448152615afe816135e5565b826159b3565b5f808080615445565b909150615b2a57506001600160a01b0382163b15155b5f80615ac0565b600114615b23565b8151919060418303615b6257615b5b9250602082015190606060408401519301515f1a90615bdb565b9192909190565b50505f9160029190565b60048110156143fc5780615b7e575050565b60018103615b985760405163f645eedf60e01b8152600490fd5b60028103615bb95760405163fce698f760e01b815260048101839052602490fd5b600314615bc35750565b602490604051906335e2f38360e21b82526004820152fd5b91907f7fffffffffffffffffffffffffffffff5d576e7357a4501ddfe92f46681b20a08411615c52579160209360809260ff5f9560405194855216868401526040830152606082015282805260015afa1561271e575f516001600160a01b03811615615c4857905f905f90565b505f906001905f90565b5050505f916003919056fe51eb5aa877b3d80e186f9a323c6dce052491963271d09ee40615d0bb182359d59b779b17422d0df92223018b32b4d1fa46e071723d6817e2486d003becc55f00a264697066735822122083b2eec92fa2cecbf06568565b6527f82f5c6c6a7aa211017b9817083c831f9964736f6c63430008180033","linkReferences":{}},"methodIdentifiers":{"DOMAIN_SEPARATOR()":"3644e515","SELECT_SOLVER_TYPEHASH()":"e1b32f7c","_destinationProtocolFees(bytes32)":"80b0b687","_filled(bytes32)":"7c865d2a","_instances(bytes32)":"dff78f6e","_nonce()":"5d1222aa","_orders(bytes32,address)":"fc27935e","_owner()":"b2bdfa7b","_partialFills(bytes32,bytes32)":"f095ca8c","_paused()":"16c61ccc","calculateCommitmentSlotHash(bytes32)":"60121a94","cancelOrder((bytes32,bytes,bytes,uint256,uint256,uint256,address,((bytes32,uint256)[],bytes),(bytes32,uint256)[],(bytes32,(bytes32,uint256)[],bytes)),(uint256,uint64))":"f6df919c","eip712Domain()":"84b0196e","fillOrder((bytes32,bytes,bytes,uint256,uint256,uint256,address,((bytes32,uint256)[],bytes),(bytes32,uint256)[],(bytes32,(bytes32,uint256)[],bytes)),(uint256,uint256,(bytes32,uint256)[]))":"5cfb1ea5","host()":"f437bc59","initialize((address,address,bool,uint256,uint256,address),bytes[])":"91a7e4b9","instance(bytes)":"0bddd96c","onAccept(((bytes,bytes,uint64,bytes,bytes,uint64,bytes),address))":"0fee32ce","onGetResponse((((bytes,bytes,uint64,bytes,uint64,bytes[],uint64,bytes),(bytes,bytes)[]),address))":"c3694a83","onGetTimeout(((bytes,bytes,uint64,bytes,uint64,bytes[],uint64,bytes),address))":"50b9ac3a","onPostRequestTimeout(((bytes,bytes,uint64,bytes,bytes,uint64,bytes),address))":"f87238f3","params()":"cff0ab96","placeOrder((bytes32,bytes,bytes,uint256,uint256,uint256,address,((bytes32,uint256)[],bytes),(bytes32,uint256)[],(bytes32,(bytes32,uint256)[],bytes)),bytes32)":"958b00ed","quote((bytes,bytes,bytes,uint64,uint256,address))":"108bc1dd","quote((bytes,uint64,bytes[],uint64,uint256,bytes,address))":"67418a1a","select((bytes32,address,bytes))":"6d20e7dc"},"id":25}